:1000000000800020BD010000D10B00009D0B00000E
:100010009D0B00009D0B00009D0B00009D0B000040
:100020009D0B00009D0B00009D0B0000D10B0000FC
:10003000D10B00009D0B0000D10B00008D0B0000C8
:10004000D10B0000D10B0000D10B0000D10B000040
:10005000D10B0000D10B0000D10B0000D10B000030
:10006000D10B0000D10B0000D10B0000D10B000020
:10007000D10B0000D10B0000D10B0000D10B000010
:10008000D10B0000D10B0000D10B0000D10B000000
:10009000D10B0000D10B0000D10B0000D10B0000F0
:1000A000D10B0000D10B0000D10B0000D10B0000E0
:1000B000D10B0000D10B0000D10B0000D10B0000D0
:1000C000D10B0000D10B0000D10B0000D10B0000C0
:1000D000D10B0000D10B0000D10B0000D10B0000B0
:1000E000D10B0000D10B0000D10B0000D10B0000A0
:1000F000D10B00000D230000D10B0000C929000026
:10010000D10B0000C92E0000D10B0000D10B000064
:10011000D10B0000D10B0000D10B0000D10B00006F
:10012000D10B0000D10B0000D10B0000D10B00005F
:10013000D10B0000D10B0000D10B0000D10B00004F
:10014000D10B0000D10B0000D10B0000D10B00003F
:10015000D10B0000D10B0000D10B0000D10B00002F
:10016000D10B0000C50F0000D10B0000D10B000027
:10017000D10B0000D10B0000D10B0000D10B00000F
:10018000D10B0000D10B0000D10B0000D10B0000FF
:10019000D10B0000D10B0000D10B0000D10B0000EF
:1001A000D10B0000D10B0000D10B0000D10B0000DF
:1001B000D10B0000D10B000035090000564B4CF26A
:1001C000205210B51A804DF628121A8000BF00BFC9
:1001D00000F002FD514B4FF010621A60504A9A60D5
:1001E000504ADA60A3F53043203B1A6812F480725B
:1001F00004D14D490A604FF4A8521A604B4B1A784B
:10020000110703D51A7842F008021A70484B2A22C7
:100210001A700023474A48499818884204D247492F
:10022000595899500433F5E7454A464B9A424FF0E6
:10023000000302D242F8043BF7E74349434A5958C6
:1002400099500433B3F5DE7FF7D1414B802103F899
:10025000011B40498B42F9D13F4B1A603F4B8A2228
:100260001A70A3F5805324225A70A0221A709A792A
:100270009207FCD59A79D406FCD4394B9A7902F0CE
:100280000C02082AF9D105221A7143225A719A796F
:100290009006FCD5324B9A795106FBD5314A4FF086
:1002A000817111600521516020221A702C4B9B79BD
:1002B00003F00C030C2BF9D12B4B2C4A1A602C4B5E
:1002C0002C4A1A6000225A60072243F8042C2A4A5A
:1002D000C3F80C2D62B600F05BFD134B1B68DA0708
:1002E00005D5264800F0BCFC254B264A1A60264B53
:1002F0001B785B0609D5224C224A2368934204D11D
:100300001E4800F0ADFC0023236003F0DFFA00F08C
:1003100069FC00F099FBFEE70E20054030800440A8
:10032000823F04000100002B14D0034002D007409C
:1003300000E0074060B1FF1F2CB2FF1F783E0000B5
:100340002CB2FF1F80B8FF1F0000000000ACFF1F91
:1003500000E400E05FE400E008ED00E0005006404B
:10036000004006404480044004800440C010050062
:1003700014E000E03F19010000002020AF24E658FF
:100380001CE00340A5C3945A00F00740FFFFFFFFA5
:10039000FFFFFFFFFFFFFFFFFFFFFFFFFFFFFFFF6D
:1003A000FFFFFFFFFFFFFFFFFFFFFFFFFFFFFFFF5D
:1003B000FFFFFFFFFFFFFFFFFFFFFFFFFFFFFFFF4D
:1003C000FFFFFFFFFFFFFFFFFFFFFFFFFFFFFFFF3D
:1003D000FFFFFFFFFFFFFFFFFFFFFFFFFFFFFFFF2D
:1003E000FFFFFFFFFFFFFFFFFFFFFFFFFFFFFFFF1D
:1003F000FFFFFFFFFFFFFFFFFFFFFFFFFFFFFFFF0D
:10040000FFFFFFFFFFFFFFFFFFFFFFFFDEF9FFFF23
:1004100010B5054C237833B9044B13B10448AFF33E
:1004200000800123237010BD2CB2FF1F00000000CC
:10043000783E000008B5064B1BB106480649AFF3ED
:1004400000800648036813B1054B03B1984708BD07
:1004500000000000783E000030B2FF1F2CB2FF1FEA
:1004600000000000C3692DE9F04105467BB300217F
:1004700000F013FA044650B3B5F92020D5F81CE07B
:100480000023E0180233878887F4004747FA02F117
:1004900089B20EEB410C3EF81160BCF9028091402C
:1004A0000FFA86FCCCEB080C7F1A07FB0CF7174100
:1004B0003E44B3F5807F8680E3D128462146002262
:1004C00000F0CAF92046BDE8F04100F0A5B9BDE84A
:1004D000F08171B1931EB3F5004F0AD2013A134275
:1004E00007D1C16110235210038402D0038C013B59
:1004F000F9E770477047FFFF0F4B0360002341721D
:1005000002610372C360427A934205DA02690021F4
:1005100042F823100133F6E7084A13680BB910605C
:1005200004E05A690AB11346FBE7586100234361AE
:100530008380C380704700BF4039000078B5FF1F3B
:1005400010B5114C1148282100F0F2F8104B114958
:100550002360204602F0F3FF20460F4902F0EFFF30
:100560000E4B0F480F4947F6FF721A8302F514022B
:1005700002F65D429A620022DA619A85BDE8104077
:100580001122FFF7A6BF00BF34B5FF1F0082FF1F77
:1005900068B2FF1FC4B3FF1FA8B2FF1FF0B4FF1F54
:1005A00084B2FF1F60B1FF1F10B5134C204602F04C
:1005B000CFFF94F84130CBB1104C11492368102281
:1005C0005B68204698470F4B988802F0D7FD0E498C
:1005D00002F020FD0D4902F0D9FE02F073FF014642
:1005E000204600F029FA204600F0DEF90248BDE876
:1005F000104002F0F1BF00BF34B5FF1F8CB6FF1FE3
:100600005839000084B2FF1F5C8F82425C8F024326
:100610002DE9F843384DDFF80C81384F384EDFF8BC
:10062000089100210A4628460024FFF765FF354B54
:100630002B60012108F58C7240462C836C83EC61A1
:100640002C62AC62AC85EC852C63FFF755FF012171
:1006500007F118023846C8F80090FFF74DFF2A4B03
:100660003B60012106F58C723046FFF745FFC6F866
:100670000090DFF8B890012109F118024846FFF711
:100680003BFF224BC9F80030484602F0DBFF204810
:1006900080E8200104724472C46000F020F91D4813
:1006A000C0F80080476004724472C46000F017F91B
:1006B00019480760466004724472C46000F00FF984
:1006C000164880E8400204724472C46000F007F9E2
:1006D000134B012283F8282040F6C4121A63142217
:1006E0005C62DC625A639C63DC6383F8404083F89D
:1006F0004140BDE8F88300BFF0B4FF1F84B2FF1F84
:10070000A8B2FF1F483C00003039000050390000FB
:10071000E0B4FF1F48B2FF1F58B2FF1F24B5FF1FF0
:1007200034B5FF1FC4B3FF1F383C000068B2FF1F81
:1007300070B5C02928BFC02172B6124B1860124B89
:1007400000221A605A609A60DA601A615A618A421D
:100750000BD0540902F01F050126AE4053F8245077
:10076000354343F824500132F1E700238B4206D091
:100770004FF4827202FB030253700133F6E762B654
:1007800070BD00BF80B5FF1F88B5FF1F10B572B6E2
:100790001D4A1068134660B9506858B9906858B936
:1007A000D06858B9106958B95069143248B962B65E
:1007B00010BD06E0043204E0083202E00C3200E032
:1007C0001032B0FA80F44FF00041E14020EA01001D
:1007D00010600E4801780131C9B2017062B6D31AB7
:1007E0009B10C4EB43144FF482736343084A03F530
:1007F000FB5312681C330124D454D018054B1A78CB
:100800008A4238BF197010BD88B5FF1F85B5FF1F1C
:1008100080B5FF1F7CB5FF1F417872B60378012BAE
:1008200002D9013B037011E04A11094BC9434FF053
:10083000004001F01F0120FA01F153F822000843A3
:1008400043F82200034B1A78013A1A7062B67047D7
:1008500088B5FF1F85B5FF1F30B5C3687BB1187A17
:1008600090420AD158685C7A006950F8245025B942
:1008700040F82410087801300870DB68EEE730BDDE
:10088000437A994238BF02694FF000033ABF52F8E9
:10089000210042F821301846704738B5437A994212
:1008A00001D3002038BD036953F82140002243F8EA
:1008B0002120002CF5D02378012B0ED9FFF766FFFD
:1008C000054628B10430211D4FF4807200F0C4F8B1
:1008D0002378013B2370284638BD204638BD436845
:1008E000427A5B7A9A420FD872B60268D3680BB923
:1008F000D06004E0D96809B10B46FBE7D86001235A
:1009000013724268137262B67047FFFF074B1A7882
:1009100052B9074AD0211170A2F256324FF08041ED
:1009200001201160187070470020704784B5FF1FC8
:100930005EE400E0F8B5164B164D1A6842F080727E
:100940001A60154B1A6842F001021A60134B2E68A8
:100950001C688CB1237A6BB123682F681B68204612
:1009600098472A68E188D21B120993B28A42A38071
:1009700088BFE3806469ECE72968094B891B090992
:100980008AB21A80074B1888814288BF1A80F8BD46
:10099000FCED00E0041000E0001000E078B5FF1F5F
:1009A000A0B5FF1F86B5FF1F07B5064B1B88ADF826
:1009B0000430036801A95B680222984703B05DF820
:1009C00004FB00BF6939000070B505468AB022B942
:1009D0000368C9B21B6898472CE0012A08BF0A22A5
:1009E00021B930228DF82520212413E02124B1FBE8
:1009F000F2F002FB1011C9B209290AAE94BF3031DE
:100A000037312644C9B206F8241C014610B1013C16
:100A1000E4B2ECE733B1013CE4B20AAB23442D224B
:100A200003F8242C2B6801A95B6828462144C4F1F3
:100A3000220298470AB070BD0029BABF49422D234F
:100A400000230A22FFF7C0BF08B5FFF779FDFFF7C3
:100A5000ABFD00F085FFFAE7844641EA000313F09E
:100A600003036DD1403A41D351F8043B40F8043BB5
:100A700051F8043B40F8043B51F8043B40F8043B78
:100A800051F8043B40F8043B51F8043B40F8043B68
:100A900051F8043B40F8043B51F8043B40F8043B58
:100AA00051F8043B40F8043B51F8043B40F8043B48
:100AB00051F8043B40F8043B51F8043B40F8043B38
:100AC00051F8043B40F8043B51F8043B40F8043B28
:100AD00051F8043B40F8043B51F8043B40F8043B18
:100AE00051F8043B40F8043B403ABDD2303211D3B8
:100AF00051F8043B40F8043B51F8043B40F8043BF8
:100B000051F8043B40F8043B51F8043B40F8043BE7
:100B1000103AEDD20C3205D351F8043B40F8043BB7
:100B2000043AF9D2043208D0D2071CBF11F8013BB5
:100B300000F8013B01D30B8803806046704700BF7B
:100B4000082A13D38B078DD010F003038AD0C3F18A
:100B50000403D21ADB071CBF11F8013B00F8013B6C
:100B600080D331F8023B20F8023B7BE7043AD9D32B
:100B7000013A11F8013B00F8013BF9D20B78037000
:100B80004B7843708B78837060467047024B1A68CD
:100B900001321A60704700BFA4B5FF1F08B50B4CA7
:100BA0002368580301D500F00DFA2368590501D5D3
:100BB00001F0ACFB23681A0501D501F005FF23689D
:100BC000DB04ECD502F080F9E9E700BF3480044093
:100BD00008B5FFF7E3FFFFFF014B10221A807047B3
:100BE000002005407047FEE7EFF313839BB9EFF356
:100BF000108098B9EFF3058323B10F2B04D9084A6D
:100C0000985C01E04FF48070EFF311833BB18342B5
:100C100038BF184670474FF0FF307047184670478E
:100C2000F0E300E010B50023B0FBF2F402FB140087
:100C3000092894BF30303730C0B2C85420460CB1B8
:100C40000133F1E7CA18547022469A4206DA885CEA
:100C5000CC5C8C54C8540132013BF6E7084610BD09
:100C6000044B054900221A600A60044A10601022F1
:100C70001A60704714D0034004D0034000D00340F2
:100C8000212810B518D80D4A52F8303093F8804218
:100C90003CB1012211B183F8802010BD83F80021FE
:100CA00010BD02EBC00043681A6811B142F00302A4
:100CB00001E022F002021A6010BD00BF6C39000092
:100CC000212810B52BD8164A02EBC00301295B6816
:100CD000144601D004290FD154F83020012082F8A5
:100CE00080024FF4A2721A601A6804290CBF42F005
:100CF000200222F0200211E052F83000002280F899
:100D0000802211B94FF4807208E0022902D140F22A
:100D1000031203E0032908BF4FF481721A6010BD6B
:100D20006C39000072B60C4B0C491A680C4B1B68EE
:100D3000096862B6490102D5322A88BF0133C2F57B
:100D40008C32482102F23F12B2FBF1F24FF47A707A
:100D500000FB0320704700BF18E000E004ED00E056
:100D6000A4B5FF1F38B50446FFF7DCFF054624B9DC
:100D700038BD013C0AD005F57A75FFF7D3FF401B5B
:100D8000B0F57A7FF5D200F0EBFDF6E738BDFFFF56
:100D9000204B4FF4000210B51A604FF080721A60B9
:100DA0004FF000721A604FF080621A604FF00062DC
:100DB0001A60194B194A1A4C002048F6FF71186046
:100DC00059602823136093601361936113629362E7
:100DD000136393630922226004F580540434206075
:100DE0006160A360236144F8042C04F5FE242060B4
:100DF0000C4801600C490B608B600C4B1A6000F0D2
:100E00006DFF4FF4C870FFF7ADFFBDE8104000F074
:100E1000D7BB00BF08E100E0048003400C80034022
:100E20000080034008800B400C800B4000800B408A
:100E3000F0B50C4B0C4C1A7842F0020504EBC506D9
:100E400082F00102706009481A700678002E0CBF0B
:100E50008827C82786F0010647EA0141067044F852
:100E60003510F0BD10B6FF1F0080FF1F88B6FF1FB2
:100E7000431E032B10B510D872B6094A52F823004E
:100E800048B1416842F82310064A018832F81340FD
:100E9000611A22F8131062B610BD002010BD00BF09
:100EA00000B6FF1F6CB8FF1F013803280AD872B6BE
:100EB000054B53F82030002013B101305B68FBE78D
:100EC00062B670470020704754B6FF1F10B572B667
:100ED0000123174A1A4412F8012C12071CD5990055
:100EE000144A52F831402CB902EB431308305860D1
:100EF000114B09E041F0010152F8314064B902EBB5
:100F0000C103083058600D4B42F831300C4B1A7851
:100F1000013A1A7062B610BD0133052BD9D162B601
:100F2000074B00221A70BDE8104000F0C7BB00BF9D
:100F3000C83B00000080FF1F88004000C800400040
:100F40007EB6FF1F431E032B30B532D8194A40012D
:100F500040F01000104472B6174CE25C032A09D826
:100F6000DFE802F0160218050830022213E008300C
:100F7000042210E01148124A50F8234014B940F8F6
:100F8000231002E052F82300416042F823100FE0E2
:100F9000032200E00522E25410F0080F01F10803DB
:100FA0000A8843600CBF8823C82343EA02430360D6
:100FB00062B630BD0080FF1FBCB5FF1F54B6FF1FD7
:100FC00064B6FF1F2DE9F84FAB4F3C78E4B214F044
:100FD000040F3D4619D0A94B1B78A3B1A84A11783C
:100FE00001F0FF0321B1013BDBB2137003B900BE76
:100FF000A44A117801F0FF0329B1013BDBB2137061
:101000000BB900F089FC04233B7004F0080303F0E3
:10101000FF02002B00F067829B4B9C4C1A78D2B2E7
:1010200015094FEA920840F0E48104EBC8035968BF
:1010300054F83830C3F38303013B0C2B00F2D68104
:10104000DFE813F095019501D401D401D401D40156
:10105000D401D401B001D401D401D4010D008C4DD0
:101060000A684B688B486B6001218B4B44F8383021
:101070002A60DFF85082017092B240F28160002352
:101080008242C8F800302361A36117D8B2F5D06F4F
:1010900080F01E81B2F5817F00F0CF8006D8802AD3
:1010A00000F0BA80822A00F0BB8031E140F20233C6
:1010B0009A4200F0D180B2F5A06F1CE042F221000C
:1010C000824200F051810ED8B2F5086F00F09E8088
:1010D000B2F5106F40F01C81684B6C4EAA781A7004
:1010E00006F180090AE042F221218A4200F00881DB
:1010F00042F221339A4200F00F8109E1336A1B0664
:1011000003D5706A083800F0D9FA08364E45F5D193
:101110000026B146DFF8B0A156F80A0028B1D0F891
:1011200004B000F0CBFA5846F8E74AF806005B4BEB
:10113000DFF898A1F05056F80A0028B1D0F804B0B2
:1011400000F0BCFA5846F8E7554B4AF80600F05054
:10115000544B23F81900544B19F80320023A032A80
:1011600008D8DFE802F002040204002200E00122B5
:1011700003F8092009F10109B9F1040F06F1040689
:10118000C8D14A4B00221A7001269A46484A494B58
:101190003244334412F8012C9B0012F0080F1A70ED
:1011A0004FEA860925D000F06BFA38B104EB4613FC
:1011B00008305860404B44F8393006E09AF8003067
:1011C00044F8390001338AF8003000F059FA49F048
:1011D000010338B104EBC302083050602E4A44F8D2
:1011E000332006E044F833009AF8003001338AF8DF
:1011F000003049F00202013649F003090023052EB0
:1012000044F8323044F83930C0D186E01B4B2B4CC7
:101210001B7823700B4683E0284C237063707EE0BC
:10122000AA88042A74D8254C920023706370244B3A
:101230009B5C9E0773D5217071E0AA8802F07F0243
:10124000042A65DC6B88002B62D191001C4A0A4499
:10125000117821F0020159E0AA8802F07F02042AE5
:1012600056DC6B88002B53D19100154A0A44117843
:1012700041F002014AE000BF8020074087B6FF1F0F
:1012800011B6FF1F9CB6FF1F902007400080FF1F74
:1012900074B6FF1F88B6FF1FC8004000ACB5FF1F23
:1012A00064B6FF1F6CB8FF1FBCB5FF1F7EB6FF1FE3
:1012B000C83B000030C80110880040007FB6FF1F07
:1012C000C0200740A8B5FF1F00B6FF1F54B6FF1F80
:1012D0006A88A9889F4B53F8084CA3F10C00BCB155
:1012E00033F80C6C964209D133F80A6C8E4205D162
:1012F000120A032A0CBF2378038911E00C33EAE7B2
:10130000954A1168954A1160A978954A117004E0D0
:10131000944B0F221A7027E000231C4600E00223A2
:10132000EE88B34238BF1E46402E34BF35464025B6
:1013300020462946FFF77CFD761B2C4403D1402D27
:1013400012D1354603E0402E34BF354640252046B5
:101350002946FFF76DFD761B2C4401D1402D03D1AA
:10136000814AC8F8004016800122804B3DE0804B46
:101370001A8842F221039A4210D100237D4AC85CA8
:1013800098540133072BF9D11368862B02D17A4B7D
:101390000F221A7000200146FFF74AFD774B44F8F0
:1013A000383023E0764E3568B5B1DFF8BC81B8F847
:1013B0000090B9F1400F34BF4C46402428462146E6
:1013C000FFF736FDC4EB09039BB2A8F800300BB958
:1013D000402C00D12B193360654B1A88B2F5A06FF1
:1013E00004D100225A709A78664B1A7001225F4B22
:1013F0006CE004EBC806013D736802F00802A3F13B
:101400000800EDB202F0FF01002A36D000F056F9D4
:101410005D485E4B50F82520EAB1516840F8251030
:1014200002F108017160595D03290BD8DFE801F072
:1014300002040608032104E0022102E0052100E085
:101440000421595516F0080F12880CBF8823C823B1
:1014500043EA024342E05A5D032A07D8DFE802F07C
:1014600040400204002206E0012204E016F0080FCA
:101470000CBF022203225A5532E054F83820120CD5
:1014800023F8082C22B3DFF834E123F8061C43F8D4
:10149000041C5EF825303E4913B94EF8250002E0E1
:1014A00051F8253058603B4B41F8250033F81510B2
:1014B0000A4423F8152000F0E3F810B108307060FA
:1014C00006E0354B44F838001A7801321A7007E00C
:1014D0002A4B324A16F0080F08BF134644F838303A
:1014E00008233B7070E5E0071FD520492B482C4CA2
:1014F00002230B702B4B1A702B4B186098602B48F3
:10150000D8601A619A615C60164B0D2018702848EB
:10151000FF2303702B700274264A1370264B9F2200
:101520001A7001230B70BDE8F88F210604D50D4B0E
:101530000D221A7080232B70A20705D51C4B1A7838
:10154000D2B21A7002232B70E30644BF10232B7013
:10155000BDE8F88FD83B0000A4B5FF1F7CB8FF1F83
:10156000ACB6FF1FC02007407CB6FF1F9420074089
:1015700074B6FF1F74B8FF1F11B6FF1FC8004000EC
:10158000A8B5FF1F9820074054B6FF1FBCB5FF1F2A
:10159000ACB5FF1F6CB8FF1F7EB6FF1F8800400070
:1015A000C0B5FF1F10B6FF1F0080FF1F14B6FF1F3E
:1015B000882007408C2007408420074000B6FF1F8A
:1015C00008B501F0E9FC00221A4B0021D15098180F
:1015D0000832882A4160F7D1174A106840F4802009
:1015E000106002F528326832C3F307201070C3F38D
:1015F00007401B0E10751376FF2302F81C3C02F8FF
:10160000143C02F88C3C012302F8083C82F8641078
:1016100002F8183C094B70226FF450711A700B4499
:101620004FF400721A6003F1C04303F5C82310227F
:101630001A7008BD0080FF1F3480044049E400E0B8
:1016400000F0A0B800F05CB800F080B800F036B947
:1016500000F0A6B8084600F025B90846114600F08B
:10166000B7B87047044B00221A714FF47A711A739D
:10167000024A99601A6070478CB6FF1F883A0000D2
:1016800072B60C4A1168B1FA81F30B2B02D962B61B
:10169000002070474FF00040D84021EA000111605F
:1016A00062B6054948225343C8180022CA50426016
:1016B000704700BF84B1FF1F00AEFF1F0C4B4822D4
:1016C000C31AB3FBF2F30B2B11D80A4A127822B1DA
:1016D000094A12780AB1FFF7F9BB72B6074A4FF010
:1016E000004121FA03F311681943116062B6704793
:1016F00000AEFF1F7EB6FF1F87B6FF1F84B1FF1F1E
:1017000010B5104C23686BB120684288531C02440A
:10171000147A0288934212D3FFF7D0FF094B0022BC
:101720001A600DE0084B1B7813B94FF0FF3010BD65
:101730000320FFF79DFB20600028E5D1F5E74380FB
:10174000204610BDA8B6FF1F87B6FF1F10B50B4C73
:10175000236813B123686BB902E0094B1B7813B9F6
:101760004FF0FF3010BD0320FFF782FB2060002800
:10177000F0D1F5E75A881344187A10BDA8B6FF1FB8
:1017800087B6FF1F044B9888044B1B681BB11A884F
:101790005B88D31A184470476CB8FF1FA8B6FF1FA8
:1017A00010B5094B1B786BB1084C206818B1FFF7D6
:1017B00085FF002323600320FFF75AFB10B1FFF7DA
:1017C0007DFFF8E710BD00BF87B6FF1FA8B6FF1F5B
:1017D0002DE9F0472E4E01230746894633700C460B
:1017E000002C50D02B4D2B68AA462BBB48F6014845
:1017F000294B1B7803F0FF020BB9327015E004206F
:10180000FFF752FB072808D801233370FFF738FF92
:10181000CAF8000080B91E4B1870B8F101081F4BC0
:1018200001D01A782AB101221A704FF0FF30BDE8BA
:10183000F08700F095F8DBE7184B00221A702B6850
:101840005888C0F140018C4238BF214600F1080C95
:1018500008449C445880641A8A4204D0B85C0CF84E
:1018600002000132F8E717445A883F2A07D940227C
:101870001A8019460420FFF765FB00232B60084BF4
:1018800005221A70ACE734704846BDE8F08700BF07
:101890009DB6FF1FA0B6FF1F87B6FF1FA4B6FF1F90
:1018A0009CB6FF1F07B502AB012103F8010D1846D6
:1018B000FFF78EFF03B05DF804FBFFFF2DE9F04159
:1018C000114B1B78F3B1114E114B3468114D0127A8
:1018D0001F7098464CB1002763882F700420238026
:1018E0002146FFF72FFB376009E0FFF7C9FE0146ED
:1018F00020B104202C70FFF725FB00E02F7000239F
:1019000088F80030BDE8F08187B6FF1FA0B6FF1F42
:101910009DB6FF1F9CB6FF1F38B50E4B1B7803F01A
:10192000FF05ABB90C4C216831B14B880B8004200A
:10193000FFF708FB256038BDFFF7A2FE014620B186
:101940000420BDE83840FFF7FDBA044B01221A70AD
:1019500038BD00BF9DB6FF1FA0B6FF1F9CB6FF1F7E
:1019600010B50E4C2378BBB901232370FFF70AFF93
:1019700008B1FFF776FE00F053FC08B100F08AF8DA
:1019800000F0ACFF08B100F00FF901F039FA08B12E
:1019900000F094F90023237010BD00BFADB6FF1F07
:1019A00008B50368C9B21B68984708BD08B5036845
:1019B000C9B21B68984708BD08B50368C9B21B685F
:1019C000984708BD08B50368C9B21B68984708BDA9
:1019D000034800EB5100B0FBF1F000F0DBB900BFB1
:1019E0000044950810B5064800EB51001446B0FBC2
:1019F000F1F000F0CFF92046BDE8104000F02EBA1B
:101A00000044950800F054BA084600F085BA08462C
:101A100000F0D4BA0846114600F09ABA08B5084654
:101A200000F0F2FA003018BF012008BD08B50846E2
:101A300000F00CFB003018BF012008BD00F0F0BB27
:101A400000F028BC00F0FCBB00F0CEBB00F03ABCBC
:101A500000F0D4BB08B5084600F01EFB012008BD0D
:101A600008B5084600F018FB012008BD10B508466F
:101A70001446114600F05AFB204610BD38B5084602
:101A80000D4601F049FF04462146284600F04EFB72
:101A9000204638BD7047FFFF044B00221A714FF4F7
:101AA0007A711A73024A99601A607047B0B6FF1FC4
:101AB000B03A000008B50368C9B21B68984708BD72
:101AC00008B50368C9B21B68984708BD08B5036824
:101AD000C9B21B68984708BD08B50368C9B21B683E
:101AE000984708BD034800EB5100B0FBF1F000F04F
:101AF00091BC00BF0044950810B5064800EB5100AA
:101B00001446B0FBF1F000F085FC2046BDE8104023
:101B100000F0E4BC0044950800F00ABD084600F05F
:101B20005FBD084600F0AEBD0846114600F074BD2A
:101B300008B5084600F0CEFD003018BF012008BDF2
:101B400008B5084600F0E8FD003018BF012008BDC8
:101B500000F0C4BE00F0FCBE00F0D0BE00F0A2BE9B
:101B600000F00EBF00F0A8BE08B5084600F0F2FD78
:101B7000012008BD08B5084600F0ECFD012008BDB5
:101B800010B508461446114600F02EFE204610BD42
:101B900038B508460D4601F0BFFE044621462846EA
:101BA00000F022FE204638BD7047FFFF044B0022A4
:101BB0001A714FF47A711A73024A99601A60704769
:101BC000C0B6FF1F103B000008B50368C9B21B6810
:101BD000984708BD08B50368C9B21B68984708BD97
:101BE00008B50368C9B21B68984708BD08B5036803
:101BF000C9B21B68984708BD034800EB5100B0FB11
:101C0000F1F000F065BF00BF00A24A0410B506481D
:101C100000EB51001446B0FBF1F000F059FF2046F4
:101C2000BDE8104000F096BF00A24A0400F0BCBF1F
:101C3000084600F0EDBF084601F02EB808461146F0
:101C400001F002B808B5084601F028F8003018BFC6
:101C5000012008BD08B5084601F042F8003018BF61
:101C6000012008BD01F0CCB801F004B901F0D8B8EA
:101C700001F0AAB801F016B901F0B0B808B50846ED
:101C800001F04CF8012008BD08B5084601F046F8FF
:101C9000012008BD10B508461446114601F088F829
:101CA000204610BD38B508460D4601F035FE044605
:101CB0002146284601F07CF8204638BD7047FFFFDA
:101CC000044B00221A714FF47A711A73024A996018
:101CD0001A607047D0B6FF1F703B000010B5204B54
:101CE0002048214960221A70E1225A701F4B204A75
:101CF0001C78204B082C01D1012402E00A2C03D1CE
:101D000019240460132005E00C2C0CBF15243D247D
:101D100004601220086014601860174B17491B7884
:101D2000174A03B101230B601360164B164A19784A
:101D3000164B012901D880210BE0042901D8842108
:101D400007E0082901D8852103E0102994BF8621E6
:101D50008721116019600E4B01221A7010BD00BF5F
:101D60000040074008B003400CB0034088B1FF1F9B
:101D700008B00B400CB00B40E1B6FF1F20B0034091
:101D800020B00B4089B1FF1F24B0034024B00B40AA
:101D9000E0B6FF1F234B1A6842F480621A60224AA1
:101DA00000231370214A1370214A1370214A1370C3
:101DB000214A1370214B1B782BB1152B07D140F210
:101DC00013321F4B02E01F4B40F213321A601E4BBE
:101DD0001B78012B05D0052B07D14FF451721B4BFB
:101DE00002E01B4B4FF451721A601A4BC0F344329D
:101DF0001A70C0F347125A700221042200F01F002B
:101E000098729A70D9745A7588221A743C22DA70C2
:101E1000114B40226FF44A711A700B444FF4005278
:101E20001A607047348004406BB7FF1FE9B6FF1F8C
:101E300074B7FF1F6CB7FF1FE8B6FF1F2AB7FF1F5D
:101E400018C0044040A004408AB1FF1F1CC00440D9
:101E500044A0044000A006402DE400E0134A93781B
:101E600000F0030103F0EC030B43410748BF43F0CC
:101E70001003937000F00F03042B0C4903D18B79EE
:101E800043F040038B715379C20603F0EF03074A16
:101E900048BF43F0100353719379810603F0EF03B9
:101EA00048BF43F010039371704700BF00A0064085
:101EB00008B5114B1B685B0500D408BD0F4B1A78A1
:101EC00002F0FF0312B1FFF74BFDF7E70C4A4FF4A6
:101ED000005111600B4A0C49D37040F203120A60A2
:101EE0004A600A4A13700A4A13700A4B1B680BB106
:101EF00001221A7008BD00BF34800440E8B6FF1FFD
:101F000084E100E000A0064040A004406BB7FF1F42
:101F1000E9B6FF1FE4B6FF1F38B50446094B1B782E
:101F200003F0FF05002BF9D120460121FEF7C8FE82
:101F300020462946FEF7A4FE034B53F83420034BFA
:101F40001A6038BDE8B6FF1F6C39000070B7FF1F7C
:101F500010B509B140F08000144A13789842144635
:101F600022D0134A126852051DD503F07F03012BBE
:101F700004D0052B05D100220E4B01E00E4B0022B0
:101F80001A60002900F07F020CBF44236023012A5D
:101F900005D0052A07D143F44073064A02E0064AF9
:101FA00043F440731360207010BD00BF8AB1FF1F5F
:101FB000348004401CC0044044A004400E4A1378FE
:101FC000984218D00D490968490513D52BB1152B36
:101FD00005D10B4B0021196001E00A490B6028B1C3
:101FE000152807D140F21331054B02E0054B40F2B2
:101FF00013311960107070472AB7FF1F34800440F6
:1020000018C0044040A004400D4A38B5146814F4C8
:1020100080624FF0000410D021280A4D0AD80A4AE5
:10202000012152F830302B60FEF74AFE2B681C70FD
:10203000012038BD2C60204638BD104638BD00BF99
:1020400034800440E4B6FF1F6C3900000E4B1B685F
:1020500013F4806316D012280C4B03D140F20231E6
:102060000B4A04E0142809D10A4A40F202311160F7
:102070005A7B42F001025A73012070475A7B02F0EA
:10208000FE025A73002070473480044000A00640CE
:102090000CA0044014C00440F8B51D4B1B685A0541
:1020A000064633D51B4B1B680BB101221A701A4B25
:1020B0001C780134402C1F4628BF0024174D2B7874
:1020C000A34218D1FEF790FD40280FDC144A137983
:1020D0001B06F3D52B7813490133402B28BF00236F
:1020E000C95CDBB2C9B2D1712B70E7E7FF28E5DD2F
:1020F000FFF736FCE2E70B4BF6B21E550A4B012206
:102100001A70074BE4B2BC223C70DA70F8BD00BF15
:102110003480044070B7FF1F74B7FF1F6CB7FF1FF8
:1021200000A00640EAB6FF1FE8B6FF1F274B1B685A
:102130005A052DE9F04707468A4644D5244B1B68CB
:102140000BB101221A703D4607EB0A039D4237D2BC
:10215000DFF890801F4E98F8004096F80090013408
:10216000402C28BF00245FFA89F9A1451DD11A4BE4
:10217000BC22DA70FEF738FD40280FDC164A1379CE
:102180001B060FD5337815490133402B28BF002398
:10219000C95CDBB2C9B2D171337003E0FF2801DD45
:1021A000FFF7DEFB33784B45E4D00C4B15F8012BE1
:1021B0001A550B4B0122E4B21A7088F80040C3E7AD
:1021C000054BBC22DA70BDE8F08700BF34800440C4
:1021D00070B7FF1F6CB7FF1F00A00640EAB6FF1FD5
:1021E000E8B6FF1F74B7FF1F08B5034B1B7813B188
:1021F000FFF7B6FBF9E708BDE8B6FF1F064A074B35
:102200001B781078DBB2C0B283422CBF3F3000F1A4
:10221000FF30C01A704700BF6CB7FF1F74B7FF1FB5
:10222000054B1878054B1B78C0B2DBB2984238BF1B
:102230004030C01A704700BF6BB7FF1FE9B6FF1FE1
:1022400010B5104B10491A780B78D2B2DBB29A4213
:1022500014D00133402B28BF00230C48DCB2C05CF3
:102260000C700B490968C0B251B19A4238BF403274
:10227000D31A1A2B04DC00230B7010BD4FF0FF3073
:1022800010BD00BF6BB7FF1FE9B6FF1F2BB7FF1FC5
:10229000E4B6FF1F084B1A78084B1B78DBB29A4252
:1022A00007D00133402B28BF0023054AD05CC0B2C1
:1022B00070474FF0FF3070476BB7FF1FE9B6FF1F45
:1022C0002BB7FF1F0C4B1B685B0514D50B4BDA7843
:1022D00002F0CB02DA7040225A74DA7842F034020B
:1022E000DA70074B1A78074BD2B21A70064B1B688C
:1022F0000BB100221A7070473480044000A00640E1
:10230000E9B6FF1F6BB7FF1FE4B6FF1F30B5374BB1
:102310001A7912F0300F31D072B69A7D02F0FF00B8
:1023200022B9DA7940225A7462B627E062B6304A9E
:10233000304913780978DBB2C9B214462B4AD579F3
:102340005A1C402A28BF00228A42EDB202D02A4BF2
:102350009D541346421E12F0FF00EFD1DAB22270F4
:10236000264A126852B18B4236BFC1F14001C1EB1F
:1023700003035B18272BC4BF012313701B4BD978B1
:10238000C9B20C0620D51B7918061DD51C4B1D4A59
:102390001D781378EDB2DBB21046AB420CD0134A75
:1023A0000133402B1479184C28BF0023E45CE4B2BD
:1023B000D471127D072AF0D9DBB203700B4B1A7966
:1023C000120644BF7C22DA704B060ED5074B1A79F1
:1023D00012F0400F194608D00C4B00221A700C4B1B
:1023E0001B6803B11A703C23CB7030BD00A00640BF
:1023F0006BB7FF1FE9B6FF1F2BB7FF1FE4B6FF1F28
:1024000074B7FF1F6CB7FF1FEAB6FF1FE8B6FF1FC8
:1024100070B7FF1F234B1A6842F400621A60224A09
:1024200000231370214A1370214A1370214A13703C
:10243000214A1370214B1B78092B05D01A2B07D189
:1024400040F213321E4B02E01E4B40F213321A6070
:102450001D4B1B780A2B05D01F2B07D14FF451724F
:102460001A4B02E01A4B4FF451721A60194BC0F329
:1024700044321A70C0F347125A7000F01F00042251
:10248000022198729A70D9745A7588221A743C2263
:10249000DA70114B40221A70A3F22B334FF4004232
:1024A0001A60704734800440E6B7FF1F7DB7FF1FF6
:1024B000ECB7FF1FE7B7FF1F7CB7FF1F8BB1FF1FF4
:1024C00004D004400CB004408CB1FF1F00D0044085
:1024D00010B0044000B006402FE400E0134A9378A7
:1024E00000F0030103F0EC030B43410748BF43F046
:1024F0001003937000F00F03042B0C4903D18B7968
:1025000043F040038B715379C20603F0EF03074A8F
:1025100048BF43F0100353719379810603F0EF0332
:1025200048BF43F010039371704700BF00B00640EE
:1025300008B51E4B1B681B0500D408BD1C4B1B783F
:1025400003F0FF0213B1FFF70BFAF7E7194B4FF453
:1025500000411960184BDA70184B1B78092B05D015
:102560001A2B07D140F20312154B02E0154B40F233
:1025700003121A60144B1B7803F07F030A2B05D05B
:102580001F2B07D140F20312104B02E0104B40F218
:1025900003121A600F4A002313700F4A13700F4B77
:1025A0001B680BB101221A7008BD00BF34800440C3
:1025B0007CB7FF1F84E100E000B006408BB1FF1F35
:1025C00004D004400CB004408CB1FF1F00D0044084
:1025D00010B00440E6B7FF1F7DB7FF1F78B7FF1F9D
:1025E00038B50446094B1B7803F0FF05002BF9D1E1
:1025F00020460121FEF764FB20462946FEF740FBFA
:10260000034B53F83420034B1A6038BD7CB7FF1FCF
:102610006C390000E8B7FF1F10B509B140F0800029
:10262000144A13789842144622D0134A12681205AD
:102630001DD503F07F030A2B04D01F2B05D10022E8
:102640000E4B01E00E4B00221A60002900F07F02C1
:102650000CBF442360230A2A05D01F2A07D143F464
:102660004073064A02E0064A43F440731360207048
:1026700010BD00BF8CB1FF1F3480044000D0044067
:1026800010B004400F4A137898421AD00E490968D6
:10269000090515D5092B04D01A2B05D100210B4BA8
:1026A00001E00B4B00211960092805D01A2807D139
:1026B00040F21331054B02E0054B40F21331196033
:1026C000107070478BB1FF1F3480044004D0044069
:1026D0000CB004400D4A38B5146814F400624FF091
:1026E000000410D021280A4D0AD80A4A012152F8C4
:1026F00030302B60FEF7E4FA2B681C70012038BDE7
:102700002C60204638BD104638BD00BF34800440E0
:1027100078B7FF1F6C3900000B4B1B6813F4006384
:1027200010D01728094B09D1094A40F20231116033
:102730005A7B42F001025A73012070475A7B02F023
:10274000FE025A73002070473480044000B00640F7
:1027500008B00440F8B51D4B1B681A05064633D572
:102760001B4B1B680BB101221A701A4B1C780134E9
:10277000282C1F4628BF0024174D2B78A34218D1C0
:10278000FEF732FA40280FDC144A13791B06F3D502
:102790002B7813490133282B28BF0023C95CDBB2F7
:1027A000C9B2D1712B70E7E7FF28E5DDFFF7D8F854
:1027B000E2E70B4BF6B21E550A4B01221A70074B8B
:1027C000E4B2BC223C70DA70F8BD00BF3480044033
:1027D000E8B7FF1FECB7FF1FE7B7FF1F00B00640C9
:1027E0007EB7FF1F7CB7FF1F274B1B681A052DE91B
:1027F000F04707468A4644D5244B1B680BB101229B
:102800001A703D4607EB0A039D4237D2DFF89080ED
:102810001F4E98F8004096F800900134282C28BFED
:1028200000245FFA89F9A1451DD11A4BBC22DA7048
:10283000FEF7DAF940280FDC164A13791B060FD58C
:10284000337815490133282B28BF0023C95CDBB23C
:10285000C9B2D171337003E0FF2801DDFFF780F8C2
:1028600033784B45E4D00C4B15F8012B1A550B4B24
:102870000122E4B21A7088F80040C3E7054BBC227D
:10288000DA70BDE8F08700BF34800440E8B7FF1F6E
:10289000E7B7FF1F00B006407EB7FF1F7CB7FF1FE2
:1028A000ECB7FF1F08B5034B1B7813B1FFF758F8BF
:1028B000F9E708BD7CB7FF1F064A074B1B78107865
:1028C000DBB2C0B283422CBF273000F1FF30C01A08
:1028D000704700BFE7B7FF1FECB7FF1F054B187825
:1028E000054B1B78C0B2DBB2984238BF4030C01AEB
:1028F000704700BFE6B7FF1F7DB7FF1F10B5104B35
:1029000010491A780B78D2B2DBB29A4214D0013354
:10291000402B28BF00230C48DCB2C05C0C700B4974
:102920000968C0B251B19A4238BF4032D31A1A2B4B
:1029300004DC00230B7010BD4FF0FF3010BD00BF52
:10294000E6B7FF1F7DB7FF1FA6B7FF1F78B7FF1FB2
:10295000084B1A78084B1B78DBB29A4207D0013338
:10296000402B28BF0023054AD05CC0B270474FF00F
:10297000FF307047E6B7FF1F7DB7FF1FA6B7FF1FE9
:102980000C4B1B681B0514D50B4BDA7802F0CB02FD
:10299000DA7040225A74DA7842F03402DA70074B67
:1029A0001A78074BD2B21A70064B1B680BB1002283
:1029B0001A7070473480044000B006407DB7FF1F96
:1029C000E6B7FF1F78B7FF1F30B5374B1A7912F003
:1029D000300F31D072B69A7D02F0FF0022B9DA7959
:1029E00040225A7462B627E062B6304A3049137802
:1029F0000978DBB2C9B214462B4AD5795A1C402A51
:102A000028BF00228A42EDB202D02A4B9D541346C1
:102A1000421E12F0FF00EFD1DAB22270264A12688D
:102A200052B18B4236BFC1F14001C1EB03035B18C9
:102A3000272BC4BF012313701B4BD978C9B20C06D6
:102A400020D51B7918061DD51C4B1D4A1D781378FF
:102A5000EDB2DBB21046AB420CD0134A0133282B47
:102A60001479184C28BF0023E45CE4B2D471127DC1
:102A7000072AF0D9DBB203700B4B1A79120644BF58
:102A80007C22DA704B060ED5074B1A7912F0400FF4
:102A9000194608D00C4B00221A700C4B1B6803B16E
:102AA0001A703C23CB7030BD00B00640E6B7FF1F64
:102AB0007DB7FF1FA6B7FF1F78B7FF1FECB7FF1F3B
:102AC000E7B7FF1F7EB7FF1F7CB7FF1FE8B7FF1FE9
:102AD000174B1A6842F480521A60164A002313708A
:102AE000154A1370154A1370154A1370154A13705E
:102AF000154A40F2133111604FF451715160134A7D
:102B0000C0F344311170C0F3471100F01F00517041
:102B10009072937013742C23D3700D4B40226FF47A
:102B20004B711A700B444FF400321A60704700BFAB
:102B3000348004405EB8FF1FF5B7FF1F64B8FF1F65
:102B40005FB8FF1FF4B7FF1F08C0044000C0064075
:102B500031E400E0134A937800F0030103F0EC0342
:102B60000B43410748BF43F01003937000F00F037D
:102B7000042B0C4903D18B7943F040038B715379BB
:102B8000C20603F0EF03074A48BF43F01003537136
:102B90009379810603F0EF0348BF43F0100393716C
:102BA000704700BF00C0064008B5114B1B68DB042E
:102BB00000D408BD0F4B1A7802F0FF0312B1FEF7E4
:102BC000CFFEF7E70C4A4FF4003111600B4A0C4975
:102BD000D37040F203120A604A600A4A13700A4A2C
:102BE00013700A4B1B680BB101221A7008BD00BF9D
:102BF00034800440F4B7FF1F84E100E000C00640C9
:102C000008C004405EB8FF1FF5B7FF1FF0B7FF1FF5
:102C100038B50446094B1B7803F0FF05002BF9D1AA
:102C200020460121FEF74CF820462946FEF728F8F9
:102C3000034B53F83420034B1A6038BDF4B7FF1F21
:102C40006C39000060B8FF1F10B509B140F080007A
:102C50000E4A1378984217D00D4C2468E40412D51C
:102C600003F07F03082B02D10A4B00241C600029CB
:102C700000F07F030CBF44216021082B03D1054BDA
:102C800041F440711960107010BD00BF8DB1FF1F7D
:102C9000348004400CC004407047FFFF0D4A38B533
:102CA000146814F480524FF0000410D021280A4D0B
:102CB0000AD80A4A012152F830302B60FEF700F89A
:102CC0002B681C70012038BD2C60204638BD104692
:102CD00038BD00BF34800440F0B7FF1F6C390000DE
:102CE0000B4B1B6813F4805310D00E28094B09D1ED
:102CF000094A40F2023111605A7B42F001025A73D4
:102D0000012070475A7B02F0FE025A730020704780
:102D10003480044000C0064004C00440F8B51D4B98
:102D20001B68DA04064633D51B4B1B680BB1012226
:102D30001A701A4B1C780134282C1F4628BF002417
:102D4000174D2B78A34218D1FDF74EFF40280FDC1A
:102D5000144A13791B06F3D52B7813490133282B1A
:102D600028BF0023C95CDBB2C9B2D1712B70E7E781
:102D7000FF28E5DDFEF7F4FDE2E70B4BF6B21E554A
:102D80000A4B01221A70074BE4B2AC223C70DA7095
:102D9000F8BD00BF3480044060B8FF1F64B8FF1F57
:102DA0005FB8FF1F00C00640F6B7FF1FF4B7FF1F54
:102DB00038B504464518AC4204D014F8010BFFF7AF
:102DC000ADFFF8E738BDFFFF08B5034B1B7813B123
:102DD000FEF7C6FDF9E708BDF4B7FF1F064A074B2B
:102DE0001B781078DBB2C0B283422CBF273000F1D1
:102DF000FF30C01A704700BF5FB8FF1F64B8FF1FE5
:102E0000054B1878054B1B78C0B2DBB2984238BF2F
:102E10004030C01A704700BF5EB8FF1FF5B7FF1FF4
:102E200010B5104B10491A780B78D2B2DBB29A4227
:102E300014D00133402B28BF00230C48DCB2C05C07
:102E40000C700B490968C0B251B19A4238BF403288
:102E5000D31A1A2B04DC00230B7010BD4FF0FF3087
:102E600010BD00BF5EB8FF1FF5B7FF1F1EB8FF1FE4
:102E7000F0B7FF1F084B1A78084B1B78DBB29A4259
:102E800007D00133402B28BF0023054AD05CC0B2D5
:102E900070474FF0FF3070475EB8FF1FF5B7FF1F58
:102EA0001EB8FF1F054B1A78054BD2B21A70054B9E
:102EB0001B680BB100221A70704700BFF5B7FF1FE7
:102EC0005EB8FF1FF0B7FF1F10B5294B1A799206A5
:102ED00020D5284AD879137827490133402B09781F
:102EE00028BF00238B42C0B203D02449C854D9B2B2
:102EF0001170234A116869B1224A1278D2B2934202
:102F000036BFC2F14002C2EB03039B18272BC4BF9C
:102F100001230B70164AD178C9B20C0616D5137965
:102F2000180613D5184B17481C780378DBB29C425F
:102F300002D16C23D37009E00133282B28BF002372
:102F4000124CE45CDBB2E4B2D47103704B060ED5D4
:102F5000074B1A7912F0400F194608D00C4B00228B
:102F60001A700C4B1B6803B11A702C23CB7010BD68
:102F700000C006405EB8FF1FF5B7FF1F1EB8FF1F59
:102F8000F0B7FF1F5FB8FF1F64B8FF1FF6B7FF1F42
:102F9000F4B7FF1F60B8FF1F1FB572B6154B702244
:102FA0001A70154A412111700F2102F8011C80226C
:102FB0001A701A781206FCD5104B186862B6104BBE
:102FC000984298BF0A2301AC98BF584321460A2271
:102FD000FDF728FE0023E15C0A4A29B102EB430019
:102FE00001330A2B4180F6D101335B00137004B02A
:102FF00010BD00BF00000240070002400800024070
:103000007F96980016B2FF1F80F0004002E000BFDC
:1030100081F0004142001FBF5FEA410392EA030FC3
:103020007FEA226C7FEA236C6AD04FEA1262D2EB0D
:103030001363C1BFD218414048404140B8BF5B4212
:10304000192B88BF704710F0004F40F4000020F0AB
:103050007F4018BF404211F0004F41F4000121F0C1
:103060007F4118BF494292EA030F3FD0A2F101020B
:1030700041FA03FC10EB0C00C3F1200301FA03F149
:1030800000F0004302D5494260EB4000B0F5000F6C
:1030900013D3B0F1807F06D340084FEA310102F12B
:1030A0000102FE2A51D2B1F1004F40EBC25008BFDD
:1030B00020F0010040EA03007047490040EB0000A7
:1030C00010F4000FA2F10102EDD1B0FA80FCACF1D6
:1030D000080CB2EB0C0200FA0CF0AABF00EBC250D5
:1030E00052421843BCBFD0401843704792F0000FC3
:1030F00081F4000106BF80F400000132013BB5E716
:103100004FEA41037FEA226C18BF7FEA236C21D08B
:1031100092EA030F04D092F0000F08BF08467047F0
:1031200090EA010F1CBF0020704712F07F4F04D1BE
:10313000400028BF40F00040704712F100723CBFD1
:1031400000F50000704700F0004343F0FE4040F4FB
:10315000000070477FEA226216BF08467FEA2363B9
:103160000146420206BF5FEA412390EA010F40F4A4
:10317000800070474FF0000304E000BF10F00043F0
:1031800048BF40425FEA000C08BF704743F09643D7
:1031900001464FF000001CE050EA010208BF7047F2
:1031A0004FF000030AE000BF50EA010208BF704779
:1031B00011F0004302D5404261EB41015FEA010C8E
:1031C00002BF84460146002043F0B64308BFA3F186
:1031D0008053A3F50003BCFA8CF2083AA3EBC25368
:1031E00010DB01FA02FC634400FA02FCC2F1200287
:1031F000BCF1004F20FA02F243EB020008BF20F0BE
:103200000100704702F1200201FA02FCC2F1200223
:1032100050EA4C0021FA02F243EB020008BF20EA18
:10322000DC7070474FF0FF0C1CEAD0521EBF1CEA46
:10323000D15392EA0C0F93EA0C0F6FD01A4480EA34
:10324000010C400218BF5FEA41211ED04FF000631D
:1032500043EA501043EA5111A0FB01310CF0004049
:10326000B1F5000F3EBF490041EAD3715B0040EA6F
:10327000010062F17F02FD2A1DD8B3F1004F40EB3F
:10328000C25008BF20F00100704790F0000F0CF012
:10329000004C08BF49024CEA502040EA51207F3AD6
:1032A000C2BFD2F1FF0340EAC250704740F40000B1
:1032B0004FF00003013A5DDC12F1190FDCBF00F0A2
:1032C00000407047C2F10002410021FA02F1C2F150
:1032D000200200FA02FC5FEA310040F1000053EAEC
:1032E0004C0308BF20EADC70704792F0000F00F03A
:1032F000004C02BF400010F4000F013AF9D040EA40
:103300000C0093F0000F01F0004C02BF490011F4D3
:10331000000F013BF9D041EA0C018FE70CEAD153D1
:1033200092EA0C0F18BF93EA0C0F0AD030F0004C51
:1033300018BF31F0004CD8D180EA010000F0004005
:10334000704790F0000F17BF90F0004F084691F0C3
:10335000000F91F0004F14D092EA0C0F01D14202FD
:103360000FD193EA0C0F03D14B0218BF084608D1C6
:1033700080EA010000F0004040F0FE4040F4000010
:10338000704740F0FE4040F4400070474FF0FF0CA3
:103390001CEAD0521EBF1CEAD15392EA0C0F93EAEA
:1033A0000C0F69D0A2EB030280EA010C49024FEA3C
:1033B000402037D04FF0805343EA111143EA1013F5
:1033C0000CF000408B4238BF5B0042F17D024FF4AD
:1033D000000C8B4224BF5B1A40EA0C00B3EB510F88
:1033E00024BFA3EB510340EA5C00B3EB910F24BF71
:1033F000A3EB910340EA9C00B3EBD10F24BFA3EBF6
:10340000D10340EADC001B0118BF5FEA1C1CE0D1BD
:10341000FD2A3FF650AF8B4240EBC25008BF20F070
:10342000010070470CF0004C4CEA50207F32C2BFC4
:10343000D2F1FF0340EAC250704740F400004FF061
:103440000003013A37E792F0000F00F0004C02BF92
:10345000400010F4000F013AF9D040EA0C0093F05C
:10346000000F01F0004C02BF490011F4000F013BB6
:10347000F9D041EA0C0195E70CEAD15392EA0C0F1E
:1034800008D142027FF47DAF93EA0C0F7FF470AF56
:10349000084676E793EA0C0F04D14B023FF44CAF99
:1034A00008466EE730F0004C18BF31F0004CCAD12E
:1034B00030F000427FF45CAF31F000437FF43CAF6A
:1034C0005FE700BF4FEA4002B2F1FE4F0FD34FF06B
:1034D0009E03B3EB12620DD94FEA002343F0004381
:1034E00010F0004F23FA02F018BF404270474FF02F
:1034F0000000704712F1610F01D1420205D110F0B6
:10350000004008BF6FF0004070474FF00000704768
:1035100038B5044608460D4600F0FEF92368024619
:103520005B6820462946984738BD38B50446FDF704
:1035300083FA05462046FDF737FA284438BD436A2A
:10354000072B04DC00EB83020133516043627047B8
:1035500037B5002380F8403080F841301B4B90F89D
:1035600028201B6801930446019B0AB1426B00E0CE
:10357000026BE16A591A914226D3A26BE3620123DE
:1035800084F8403062B984F8413011491148FFF79E
:10359000BFFF1048E16BFFF7C8FF206800F05AF842
:1035A0000C48E16BFFF7C1FF0025636A9D420BDA0F
:1035B00004EB850307485A68A36B0C33013532F9D5
:1035C0001310FFF7B2FFF0E703B030BDA4B5FF1F43
:1035D000203C00008CB6FF1F90F8403010B5044628
:1035E00073B108480849FFF793FFA36B01337F2BA2
:1035F00001DCA36310BD0023A363E36B0133E3632A
:1036000010BD00BF8CB6FF1F283C000038B500215C
:103610000546FDF735F9044690B10023E21891887C
:10362000EA180233B3F5807F1183F7D1284621468B
:103630000022FDF711F92046BDE83840FDF7ECB84F
:1036400038BDFFFF08B5FDF761F9014B187008BDE3
:1036500065B8FF1F034B1B781BB1034B4FF0804233
:103660001A60704765B8FF1F08E200E0F8B5B0F9CE
:1036700018300446002B00F0EE80FDF787F8064670
:10368000002800F0E880B4F92C30051D072B00F26B
:10369000C780DFE803F004615082289D71B00023E9
:1036A000E2696D4F4FEAD25EC2F3CF1037F91EC008
:1036B0000EF1010EC0F57F4137F91E70FF317843DE
:1036C0000CFB0101B4F9180009144143C913E95274
:1036D000A16A02338A1848BF22F00042B3F5807F06
:1036E000E261DDD19CE0216B002900F0A180E3695B
:1036F00000224FEAD35EC3F3CF1731F91EC00EF19B
:10370000010E5FFA8EFEC7F57F4031F91EE0FF30F3
:1037100007FB0EF700FB0C70B4F918700014784327
:10372000C013A852A06A02320344B2F5807F23F08E
:103730000043DED14AE0E269831D0021208B57005F
:1037400048BF404223F8020C0131A06A802902449C
:1037500003F10203F2D14CE0E2690023218BC2F3B2
:10376000CF3010FB01F1C913E952A16A0233B3F55E
:10377000807F0A44F2D13CE0E2690023218BC2F34E
:10378000CF3010FB01F1C913E952A16A0233B3F53E
:10379000807FC1EB0202F1D12BE0E3690022208B94
:1037A000002BB8BF40424FEA8301B8BF80B25F0030
:1037B00048BF4942490C00B24143C913A952A16A0A
:1037C0000232B2F5807F03EB4103E8D1E36127E0E9
:1037D000206AE269B31D0021278B824238BF7F42F5
:1037E00023F8027C0131A76A80293A4403F10203DD
:1037F000F2D1E26114E00027A26AE369934205D2A4
:10380000B4F91810484200F056F8A084A38CEB538A
:10381000A26AE36902371344B7F5807FE361EBD115
:10382000B4F92E304BB9204631460022FDF714F88A
:103830003046BDE8F840FCF7EFBF06F58273B5F9F6
:103840000010B4F92E200A4402F30F0225F8022BCF
:103850009D42F4D3E7E7F8BD503C00000C4A0D4808
:10386000136811460C4A002B08BF134693FBF0F275
:1038700000FB12330948424344F2A71000FB032027
:103880000028BCBF00F1004000F1FF300860704725
:1038900068B8FF1F1DF3010024D95B07ECF4FFFF9C
:1038A00010B5044630B1FFF7D9FFB0FBF4F303FBCA
:1038B000140010BD10BD884210B5044604DA081A81
:1038C000FFF7EEFF204410BD10BDFFFF70B50E4B9B
:1038D0000E4DED1AAD1000241E46AC4204D056F831
:1038E000242090470134F8E700F0B4FA084D094B62
:1038F000ED1AAD1000241E46AC4204D056F8242028
:1039000090470134F8E770BD603E0000603E000063
:10391000783E0000603E0000034613F8012B002AA9
:10392000FBD1181A013870470000000000000000A9
:10393000650400000000000000000000000000001E
:10394000E70B000000000000000000000000000085
:10395000F5040000000000002870726F6365737347
:103960006F72557361676529000D0AFF4008FE43B9
:1039700040A004404408FE4344A004400018FE4315
:1039800000C004403000FE43309004403400FE4349
:10399000349004401C18FE431CC004401018FE4321
:1039A00010C004400818FE4308C004400C18FE4331
:1039B0000CC004400C10FE430CB004401010FE4339
:1039C00010B004401810FE4318B004401C10FE4311
:1039D0001CB004401410FE4314B004400418FE430D
:1039E00004C004400010FE4300B004400008FE4341
:1039F00000A004400408FE4304A004400C08FE4359
:103A00000CA004400808FE4308A004401418FE431C
:103A100014C004401818FE4318C004400410FE43AC
:103A200004B004400810FE4308B004401400FE43F4
:103A3000149004404C08FE434CA004400420FE4374
:103A400004D004402410FE4324B004402010FE4360
:103A500020B004402810FE4328B004402C10FE4340
:103A60002CB004400020FE4300D004404808FE4330
:103A700048A004401000FE4310900440FFFFFFFFE9
:103A80000000000000000000551600005B1600005A
:103A90004116000045160000491600004D160000B2
:103AA00051160000000000000000000000000000AF
:103AB000551A00006D1A00003D1A0000451A00005A
:103AC000411A0000491A0000D1190000E519000050
:103AD000051A0000091A00000F1A0000151A00004C
:103AE0001D1A00002D1A00004D1A0000511A000086
:103AF000A1190000AD190000B9190000C519000096
:103B00007D1A0000611A00000000000000000000A3
:103B1000691B0000811B0000511B0000591B0000A5
:103B2000551B00005D1B0000E51A0000F91A00009B
:103B3000191B00001D1B0000231B0000291B000097
:103B4000311B0000411B0000611B0000651B0000D1
:103B5000B51A0000C11A0000CD1A0000D91A0000E1
:103B6000911B0000751B0000000000000000000019
:103B70007D1C0000951C0000651C00006D1C0000F1
:103B8000691C0000711C0000F91B00000D1C0000E6
:103B90002D1C0000311C0000371C00003D1C0000E3
:103BA000451C0000551C0000751C0000791C00001D
:103BB000C91B0000D51B0000E11B0000ED1B00002D
:103BC000A51C0000891C000000151915000100004B
:103BD0008EB1FF1F1200000000020000B8B1FF1FED
:103BE000430000000003000012B2FF1F00000000AD
:103BF00001030904A0B1FF1F000000000203090433
:103C0000FCB1FF1F000000000303090416B2FF1FF0
:103C100000000000000000000000000000000000A4
:103C20002A626C6F636B20004000FFFFFFFFFFFF05
:103C300000000000000000000D3600000000000041
:103C400000000000000000006D36000000000000D1
:103C50000000240348066A098C0CAB0FC812E21559
:103C6000F9180B1C1A1F2322282526281F2B112E7A
:103C7000FB30DF33BA368C39563C173FCE417A449D
:103C80001C47B4493F4CBF4E33519B53F5554258E6
:103C9000825AB35CD75EEB60F162E864CF66A668D7
:103CA0006D6A236CC96D5E6FE2705472B5730475F2
:103CB00041766B77847889797C7A5C7B297CE37C9C
:103CC000897D1D7E9C7E097F617FA67FD87FF57FE1
:103CD000FF7FF57FD87FA67F617F097F9C7E1D7E59
:103CE000897DE37C297C5C7B7C7A897984786B771D
:103CF00041760475B5735472E2705E6FC96D236CC2
:103D00006D6AA668CF66E864F162EB60D75EB35C6B
:103D1000825A4258F5559B533351BF4E3F4CB449DC
:103D20001C477A44CE41173F563C8C39BA36DF33B4
:103D3000FB30112E1F2B2628282523221A1F0B1C8F
:103D4000F918E215C812AB0F8C0C6A094806240357
:103D50000000DCFCB8F996F674F355F038ED1EEA75
:103D600007E7F5E3E6E0DDDDD8DADAD7E1D4EFD135
:103D700005CF21CC46C974C6AAC3E9C032BE86BBF2
:103D8000E4B84CB6C1B341B1CDAE65AC0BAABEA789
:103D90007EA54DA329A1159F0F9D189B31995A9778
:103DA0009395DD933792A2901E8FAC8D4B8CFC8A3D
:103DB000BF8995887C8777868485A484D7831D8373
:103DC0007782E3816481F7809F805A8028800B800E
:103DD00001800B8028805A809F80F7806481E38176
:103DE00077821D83D783A484848577867C87958892
:103DF000BF89FC8A4B8CAC8D1E8FA2903792DD93CD
:103E000093955A973199189B0F9D159F29A14DA302
:103E10007EA5BEA70BAA65ACCDAE41B1C1B34CB671
:103E2000E4B886BB32BEE9C0AAC374C646C921CC79
:103E300005CFEFD1E1D4DAD7D8DADDDDE6E0F5E37E
:103E400007E71EEA38ED55F074F396F6B8F9DCFC96
:103E50000000FFFFF8B500BFF8BC08BC9E467047E5
:103E6000350400001106000065160000991A0000D4
:083E7000AD1B0000C11C0000A5
:103E78009CB4C8B5B0B980C138CDFCD6B4E260F006
:103E88000000A00F4C1D0429C832803E5046384A15
:103E9800644B0000FFFFFFFF0A0401090A08120132
:103EA800010102000040C016830400020102030160
:103EB80018035400650065006E0073007900640003
:103EC800750069006E006F0009024300020100C01E
:103ED8003209040000010202010005240010010556
:103EE80024010101042402060524060001070582B5
:103EF8000310004009040100020A0000000705033E
:103F08000240000007058402400000001603550027
:103F180053004200200053006500720069006100F0
:103F28006C00040309040C030000000000000000FA
:0C3F38000000000000000000000000007D
:00000001FF
