:1000000000800020BD010000450B0000110B000026
:10001000110B0000110B0000110B0000110B000070
:10002000110B0000110B0000110B0000450B00002C
:10003000450B0000110B0000450B0000010B0000F8
:10004000450B0000450B0000450B0000450B000070
:10005000450B0000450B0000450B0000450B000060
:10006000450B0000450B0000450B0000450B000050
:10007000450B0000450B0000450B0000450B000040
:10008000450B0000450B0000450B0000450B000030
:10009000450B0000450B0000450B0000450B000020
:1000A000450B0000450B0000450B0000450B000010
:1000B000450B0000450B0000450B0000450B000000
:1000C000450B0000450B0000450B0000450B0000F0
:1000D000450B0000450B0000450B0000450B0000E0
:1000E000450B0000450B0000450B0000450B0000D0
:1000F000450B000021220000450B0000DD28000018
:10010000450B0000DD2D0000450B0000450B0000F5
:10011000450B0000450B0000450B0000450B00009F
:10012000450B0000450B0000450B0000450B00008F
:10013000450B0000450B0000450B0000450B00007F
:10014000450B0000450B0000450B0000450B00006F
:10015000450B0000450B0000450B0000450B00005F
:10016000450B0000190F0000450B0000450B000077
:10017000450B0000450B0000450B0000450B00003F
:10018000450B0000450B0000450B0000450B00002F
:10019000450B0000450B0000450B0000450B00001F
:1001A000450B0000450B0000450B0000450B00000F
:1001B000450B0000450B000049090000564B4CF26E
:1001C000205210B51A804DF628121A8000BF00BFC9
:1001D00000F0BCFC514B4FF010621A60504A9A601C
:1001E000504ADA60A3F53043203B1A6812F480725B
:1001F00004D14D490A604FF4A8521A604B4B1A784B
:10020000110703D51A7842F008021A70484B2A22C7
:100210001A700023474A48499818884204D247492F
:10022000595899500433F5E7454A464B9A424FF0E6
:10023000000302D242F8043BF7E74349434A5958C6
:1002400099500433B3F5DE7FF7D1414B802103F899
:10025000011B40498B42F9D13F4B1A603F4B8A2228
:100260001A70A3F5805324225A70A0221A709A792A
:100270009207FCD59A79D406FCD4394B9A7902F0CE
:100280000C02082AF9D105221A7143225A719A796F
:100290009006FCD5324B9A795106FBD5314A4FF086
:1002A000817111600521516020221A702C4B9B79BD
:1002B00003F00C030C2BF9D12B4B2C4A1A602C4B5E
:1002C0002C4A1A6000225A60072243F8042C2A4A5A
:1002D000C3F80C2D62B600F005FD134B1B68DA075E
:1002E00005D5264800F066FC254B264A1A60264BA9
:1002F0001B785B0609D5224C224A2368934204D11D
:100300001E4800F057FC0023236003F0FDF900F0C5
:1003100023FC00F053FBFEE70E2005403080044034
:10032000823F04000100002B14D0034002D007409C
:1003300000E0074060B1FF1FB8B2FF1F743E00002D
:10034000B8B2FF1F18B9FF1F0000000000ACFF1F6C
:1003500000E400E05FE400E008ED00E0005006404B
:10036000004006404480044004800440C010050062
:1003700014E000E03F190100000020201629F75882
:100380001CE00340A5C3945A00F00740FFFFFFFFA5
:10039000FFFFFFFFFFFFFFFFFFFFFFFFFFFFFFFF6D
:1003A000FFFFFFFFFFFFFFFFFFFFFFFFFFFFFFFF5D
:1003B000FFFFFFFFFFFFFFFFFFFFFFFFFFFFFFFF4D
:1003C000FFFFFFFFFFFFFFFFFFFFFFFFFFFFFFFF3D
:1003D000FFFFFFFFFFFFFFFFFFFFFFFFFFFFFFFF2D
:1003E000FFFFFFFFFFFFFFFFFFFFFFFFFFFFFFFF1D
:1003F000FFFFFFFFFFFFFFFFFFFFFFFFFFFFFFFF0D
:10040000FFFFFFFFFFFFFFFFFFFFFFFFDEF9FFFF23
:1004100010B5054C237833B9044B13B10448AFF33E
:1004200000800123237010BDB8B2FF1F0000000040
:10043000743E000008B5064B1BB106480649AFF3F1
:1004400000800648036813B1054B03B1984708BD07
:1004500000000000743E0000BCB2FF1FB8B2FF1FD6
:1004600000000000C3692DE9F04105467BB300217F
:1004700000F01DFA044650B3B5F92020D5F81CE071
:100480000023E0180233878887F4004747FA02F117
:1004900089B20EEB410C3EF81160BCF9028091402C
:1004A0000FFA86FCCCEB080C7F1A07FB0CF7174100
:1004B0003E44B3F5807F8680E3D128462146002262
:1004C00000F0D4F92046BDE8F04100F0AFB9BDE836
:1004D000F081FFFF044B10B504460360C06908B10A
:1004E00000F066FB204610BDE03800002DE9F8431F
:1004F00004461746884619B3931EB3F5004F1FD222
:10050000561E33421CD1C06908B100F051FB78007F
:1005100000F04CFB00258146E06158F825000949B0
:1005200002F03AFD02F088FE29F815000135BD42BF
:10053000F3D110237610238402D0238C013BF9E7FA
:10054000BDE8F88300FEFF467047FFFF0F4B0360D6
:100550000023417202610372C360427A934205DA5A
:100560000269002142F823100133F6E7084A1368B4
:100570000BB9106004E05A690AB11346FBE75861F1
:10058000002343618380C380704700BFF0380000C0
:1005900004B6FF1F10B5114C1148282100F0D2F805
:1005A000104B11492360204602F083FE20460F497C
:1005B00002F07FFE0E4B0F480F4947F6FF721A8379
:1005C00002F5140202F65D429A620022DA619A850F
:1005D000BDE810401122FFF789BF00BFC0B5FF1F63
:1005E0000082FF1FF4B2FF1F50B4FF1F34B3FF1F80
:1005F0007CB5FF1F10B3FF1F64B1FF1F10B5044C83
:10060000204602F05FFE2046BDE8104002F09EBE8C
:10061000C0B5FF1F2DE9F8433A4DDFF81C813A4E73
:100620003A4FDFF8189100210A4628460024FFF7C8
:100630008DFF374B2B60012108F58C7240462C83CF
:100640006C83EC612C62AC62AC85EC852C63FFF7AB
:100650007DFF012106F118023046C8F80090FFF72F
:1006600075FF2C4B2C492D4A3360304603F037F888
:10067000012107F58C723846FFF768FFC7F8009034
:10068000DFF8BC90012109F118024846FFF75EFF30
:10069000234BC9F80030484602F08EFE214880E81E
:1006A000200104724472C46000F023F91E48C0F8AF
:1006B0000080466004724472C46000F01AF91B485E
:1006C00080E8C00004724472C46000F012F9184857
:1006D00080E8800204724472C46000F00AF9154B8D
:1006E000012283F8282040F6C4121A6314225C62A7
:1006F000DC625A639C63DC6383F8404083F84140CA
:10070000BDE8F8837CB5FF1F10B3FF1F34B3FF1F94
:10071000E03B0000E0380000D504000060B1FF1F9E
:10072000003900006CB5FF1FD4B2FF1FE4B2FF1FF9
:10073000B0B5FF1FC0B5FF1F50B4FF1FD03B000076
:10074000F4B2FF1F70B5C02928BFC02172B6124B8A
:100750001860124B00221A605A609A60DA601A61BF
:100760005A618A420BD0540902F01F050126AE409F
:1007700053F82450354343F824500132F1E7002365
:100780008B4206D04FF4827202FB03025370013396
:10079000F6E762B670BD00BF0CB6FF1F14B6FF1FB0
:1007A00010B572B61D4A1068134660B9506858B942
:1007B000906858B9D06858B9106958B9506914325E
:1007C00048B962B610BD06E0043204E0083202E027
:1007D0000C3200E01032B0FA80F44FF00041E140FA
:1007E00020EA010010600E4801780131C9B20170A1
:1007F00062B6D31A9B10C4EB43144FF48273634365
:10080000084A03F5FB5312681C330124D454D01852
:10081000054B1A788A4238BF197010BD14B6FF1FF5
:1008200011B6FF1F0CB6FF1F08B6FF1F417872B646
:100830000378012B02D9013B037011E04A11094BE7
:10084000C9434FF0004001F01F0120FA01F153F8B5
:100850002200084343F82200034B1A78013A1A7029
:1008600062B6704714B6FF1F11B6FF1F30B5C368DC
:100870007BB1187A90420AD158685C7A006950F8C6
:10088000245025B940F82410087801300870DB683E
:10089000EEE730BD437A994238BF02694FF000035A
:1008A0003ABF52F8210042F821301846704738B557
:1008B000437A994201D3002038BD036953F821409F
:1008C000002243F82120002CF5D02378012B0ED9EB
:1008D000FFF766FF054628B10430211D4FF48072F2
:1008E00000F074F82378013B2370284638BD204679
:1008F00038BD4368427A5B7A9A420FD872B6026872
:10090000D3680BB9D06004E0D96809B10B46FBE7A6
:10091000D860012313724268137262B67047FFFFFA
:10092000074B1A7852B9074AD0211170A2F25632F9
:100930004FF080410120116018707047002070470F
:1009400010B6FF1F5EE400E0F8B5164B164D1A68AE
:1009500042F080721A60154B1A6842F001021A6068
:10096000134B2E681C688CB1237A6BB123682F68F7
:100970001B68204698472A68E188D21B120993B267
:100980008A42A38088BFE3806469ECE72968094B49
:10099000891B09098AB21A80074B1888814288BFCF
:1009A0001A80F8BDFCED00E0041000E0001000E04B
:1009B00004B6FF1F2CB6FF1F12B6FF1F08B5FFF7C6
:1009C000E9FDFFF71BFE00F055FFFAE7844641EA18
:1009D000000313F003036DD1403A41D351F8043BB7
:1009E00040F8043B51F8043B40F8043B51F8043B09
:1009F00040F8043B51F8043B40F8043B51F8043BF9
:100A000040F8043B51F8043B40F8043B51F8043BE8
:100A100040F8043B51F8043B40F8043B51F8043BD8
:100A200040F8043B51F8043B40F8043B51F8043BC8
:100A300040F8043B51F8043B40F8043B51F8043BB8
:100A400040F8043B51F8043B40F8043B51F8043BA8
:100A500040F8043B51F8043B40F8043B403ABDD217
:100A6000303211D351F8043B40F8043B51F8043BB9
:100A700040F8043B51F8043B40F8043B51F8043B78
:100A800040F8043B103AEDD20C3205D351F8043B48
:100A900040F8043B043AF9D2043208D0D2071CBF14
:100AA00011F8013B00F8013B01D30B88038060463D
:100AB000704700BF082A13D38B078DD010F00303B3
:100AC0008AD0C3F10403D21ADB071CBF11F8013B23
:100AD00000F8013B80D331F8023B20F8023B7BE772
:100AE000043AD9D3013A11F8013B00F8013BF9D29D
:100AF0000B7803704B7843708B7883706046704737
:100B0000024B1A6801321A60704700BF30B6FF1FEF
:100B100008B50B4C2368580301D500F0FDF9236894
:100B2000590501D501F07CFB23681A0501D501F0B8
:100B3000D5FE2368DB04ECD502F050F9E9E700BFED
:100B40003480044008B5FFF7E3FFFFFF014B10229C
:100B50001A807047002005407047FFFF024A136863
:100B60001844106018467047A8B1FF1FFEE7FFFF4A
:100B7000EFF313839BB9EFF3108098B9EFF305837C
:100B800023B10F2B04D9084A985C01E04FF4807020
:100B9000EFF311833BB1834238BF184670474FF0E3
:100BA000FF30704718467047F0E300E002F0D2BD16
:100BB00002F0D8BD044B054900221A600A60044ABD
:100BC000106010221A60704714D0034004D0034014
:100BD00000D00340212810B518D80D4A52F8303003
:100BE00093F880423CB1012211B183F8802010BDFE
:100BF00083F8002110BD02EBC00043681A6811B1F0
:100C000042F0030201E022F002021A6010BD00BFB0
:100C100008390000212810B52BD8164A02EBC00372
:100C200001295B68144601D004290FD154F8302003
:100C3000012082F880024FF4A2721A601A68042917
:100C40000CBF42F0200222F0200211E052F83000E6
:100C5000002280F8802211B94FF4807208E0022946
:100C600002D140F2031203E0032908BF4FF481725E
:100C70001A6010BD0839000072B60C4B0C491A6896
:100C80000C4B1B68096862B6490102D5322A88BF3D
:100C90000133C2F58C32482102F23F12B2FBF1F26D
:100CA0004FF47A7000FB0320704700BF18E000E0AB
:100CB00004ED00E030B6FF1F38B50446FFF7DCFF57
:100CC000054624B938BD013C0AD005F57A75FFF711
:100CD000D3FF401BB0F57A7FF5D200F0CBFDF6E7ED
:100CE00038BDFFFF204B4FF4000210B51A604FF0E3
:100CF00080721A604FF000721A604FF080621A60C2
:100D00004FF000621A60194B194A1A4C002048F63D
:100D1000FF71186059602823136093601361936119
:100D200013629362136393630922226004F5805473
:100D3000043420606160A360236144F8042C04F54E
:100D4000FE2420600C4801600C490B608B600C4B4A
:100D50001A6000F04DFF4FF4C870FFF7ADFFBDE81B
:100D6000104000F0D7BB00BF08E100E00480034062
:100D70000C8003400080034008800B400C800B4037
:100D800000800B40F0B50C4B0C4C1A7842F0020579
:100D900004EBC50682F00102706009481A700678FB
:100DA000002E0CBF8827C82786F0010647EA0141BC
:100DB000067044F83510F0BD9CB6FF1F0080FF1F81
:100DC00014B7FF1F431E032B10B510D872B6094A83
:100DD00052F8230048B1416842F82310064A0188BE
:100DE00032F81340611A22F8131062B610BD0020C9
:100DF00010BD00BF8CB6FF1F00B9FF1F01380328CC
:100E00000AD872B6054B53F82030002013B10130D8
:100E10005B68FBE762B6704700207047E0B6FF1FD3
:100E200010B572B60123174A1A4412F8012C1207A2
:100E30001CD59900144A52F831402CB902EB4313E7
:100E400008305860114B09E041F0010152F831407F
:100E500064B902EBC103083058600D4B42F83130E1
:100E60000C4B1A78013A1A7062B610BD0133052B8B
:100E7000D9D162B6074B00221A70BDE8104000F0CD
:100E8000A7BB00BF383B00000080FF1F8800400068
:100E9000C80040000AB7FF1F431E032B30B532D8ED
:100EA000194A400140F01000104472B6174CE25C41
:100EB000032A09D8DFE802F01602180508300222DA
:100EC00013E00830042210E01148124A50F8234081
:100ED00014B940F8231002E052F82300416042F8B0
:100EE00023100FE0032200E00522E25410F0080F67
:100EF00001F108030A8843600CBF8823C82343EA32
:100F00000243036062B630BD0080FF1F48B6FF1F7A
:100F1000E0B6FF1FF0B6FF1F2DE9F84FAB4F3C784E
:100F2000E4B214F0040F3D4619D0A94B1B78A3B1CD
:100F3000A84A117801F0FF0321B1013BDBB2137025
:100F400003B900BEA44A117801F0FF0329B1013BA7
:100F5000DBB213700BB900F069FC04233B7004F0A2
:100F6000080303F0FF02002B00F067829B4B9C4CB0
:100F70001A78D2B215094FEA920840F0E48104EBE6
:100F8000C803596854F83830C3F38303013B0C2B72
:100F900000F2D681DFE813F095019501D401D40168
:100FA000D401D401D401D401B001D401D401D401BD
:100FB0000D008C4D0A684B688B486B6001218B4B90
:100FC00044F838302A60DFF85082017092B240F263
:100FD000816000238242C8F800302361A36117D8E2
:100FE000B2F5D06F80F01E81B2F5817F00F0CF8026
:100FF00006D8802A00F0BA80822A00F0BB8031E156
:1010000040F202339A4200F0D180B2F5A06F1CE0AA
:1010100042F22100824200F051810ED8B2F5086FF1
:1010200000F09E80B2F5106F40F01C81684B6C4E52
:10103000AA781A7006F180090AE042F221218A4258
:1010400000F0088142F221339A4200F00F8109E159
:10105000336A1B0603D5706A083800F0B9FA0836FF
:101060004E45F5D10026B146DFF8B0A156F80A008A
:1010700028B1D0F804B000F0ABFA5846F8E74AF8C7
:1010800006005B4BDFF898A1F05056F80A0028B133
:10109000D0F804B000F09CFA5846F8E7554B4AF8EF
:1010A0000600F050544B23F81900544B19F8032054
:1010B000023A032A08D8DFE802F002040204002200
:1010C00000E0012203F8092009F10109B9F1040F38
:1010D00006F10406C8D14A4B00221A7001269A462E
:1010E000484A494B3244334412F8012C9B0012F019
:1010F000080F1A704FEA860925D000F04BFA38B174
:1011000004EB461308305860404B44F8393006E091
:101110009AF8003044F8390001338AF8003000F0C2
:1011200039FA49F0010338B104EBC30208305060CA
:101130002E4A44F8332006E044F833009AF8003091
:1011400001338AF8003049F00202013649F0030900
:101150000023052E44F8323044F83930C0D186E0FF
:101160001B4B2B4C1B7823700B4683E0284C2370C1
:1011700063707EE0AA88042A74D8254C92002370FC
:101180006370244B9B5C9E0773D5217071E0AA8825
:1011900002F07F02042A65DC6B88002B62D191008B
:1011A0001C4A0A44117821F0020159E0AA8802F091
:1011B0007F02042A56DC6B88002B53D19100154A1C
:1011C0000A44117841F002014AE000BF8020074044
:1011D00013B7FF1F9DB6FF1F15B7FF1F90200740D5
:1011E0000080FF1F00B7FF1F14B7FF1FC80040009B
:1011F00038B6FF1FF0B6FF1F00B9FF1F48B6FF1F2C
:101200000AB7FF1F383B000030C8011088004000BB
:101210000BB7FF1FC020074034B6FF1F8CB6FF1F5F
:10122000E0B6FF1F6A88A9889F4B53F8084CA3F1CA
:101230000C00BCB133F80C6C964209D133F80A6C3F
:101240008E4205D1120A032A0CBF2378038911E0CC
:101250000C33EAE7954A1168954A1160A978954AD6
:10126000117004E0944B0F221A7027E000231C46F3
:1012700000E00223EE88B34238BF1E46402E34BF42
:101280003546402520462946FFF77CFD761B2C4439
:1012900003D1402D12D1354603E0402E34BF3546F0
:1012A000402520462946FFF76DFD761B2C4401D1D1
:1012B000402D03D1814AC8F8004016800122804B9E
:1012C0003DE0804B1A8842F221039A4210D100235C
:1012D0007D4AC85C98540133072BF9D11368862BDB
:1012E00002D17A4B0F221A7000200146FFF74AFD07
:1012F000774B44F8383023E0764E3568B5B1DFF8E7
:10130000BC81B8F80090B9F1400F34BF4C4640247E
:1013100028462146FFF736FDC4EB09039BB2A8F827
:1013200000300BB9402C00D12B193360654B1A8863
:10133000B2F5A06F04D100225A709A78664B1A70E9
:1013400001225F4B6CE004EBC806013D736802F0BC
:101350000802A3F10800EDB202F0FF01002A36D026
:1013600000F036F95D485E4B50F82520EAB151682F
:1013700040F8251002F108017160595D03290BD86E
:10138000DFE801F002040608032104E0022102E084
:10139000052100E00421595516F0080F12880CBFF2
:1013A0008823C82343EA024342E05A5D032A07D850
:1013B000DFE802F040400204002206E0012204E0DF
:1013C00016F0080F0CBF022203225A5532E054F8DF
:1013D0003820120C23F8082C22B3DFF834E123F86C
:1013E000061C43F8041C5EF825303E4913B94EF83C
:1013F000250002E051F8253058603B4B41F82500AC
:1014000033F815100A4423F8152000F0C3F810B182
:101410000830706006E0354B44F838001A78013225
:101420001A7007E02A4B324A16F0080F08BF13461D
:1014300044F8383008233B7070E5E0071FD5204999
:101440002B482C4C02230B702B4B1A702B4B186023
:1014500098602B48D8601A619A615C60164B0D2029
:1014600018702848FF2303702B700274264A1370EB
:10147000264B9F221A7001230B70BDE8F88F2106BE
:1014800004D50D4B0D221A7080232B70A20705D5B1
:101490001C4B1A78D2B21A7002232B70E30644BF99
:1014A00010232B70BDE8F88F483B000030B6FF1FBB
:1014B00010B9FF1F24B7FF1FC020074008B7FF1F48
:1014C0009420074000B7FF1F08B9FF1F9DB6FF1FFC
:1014D000C800400034B6FF1F98200740E0B6FF1F49
:1014E00048B6FF1F38B6FF1F00B9FF1F0AB7FF1F1E
:1014F000880040004CB6FF1F9CB6FF1F0080FF1FF6
:10150000A0B6FF1F882007408C200740842007409A
:101510008CB6FF1F08B501F0C9FC00221A4B002150
:10152000D15098180832882A4160F7D1174A1068BC
:1015300040F48020106002F528326832C3F307209F
:101540001070C3F307401B0E10751376FF2302F8CB
:101550001C3C02F8143C02F88C3C012302F8083CC5
:1015600082F8641002F8183C094B70226FF4507135
:101570001A700B444FF400721A6003F1C04303F574
:10158000C82310221A7008BD0080FF1F3480044059
:1015900049E400E072B60C4A1168B1FA81F30B2BF2
:1015A00002D962B6002070474FF00040D84021EACF
:1015B0000001116062B6054948225343C818002251
:1015C000CA504260704700BFACB1FF1F00AEFF1FA2
:1015D0000C4B4822C31AB3FBF2F30B2B11D80A4A67
:1015E000127822B1094A12780AB1FFF719BC72B613
:1015F000074A4FF0004121FA03F3116819431160C3
:1016000062B6704700AEFF1F0AB7FF1F13B7FF1F78
:10161000ACB1FF1F10B5104C23686BB12068428835
:10162000531C0244147A0288934212D3FFF7D0FF6E
:10163000094B00221A600DE0084B1B7813B94FF0DC
:10164000FF3010BD0320FFF7BDFB20600028E5D16F
:10165000F5E74380204610BD20B7FF1F13B7FF1FDB
:1016600010B50B4C236813B123686BB902E0094B2A
:101670001B7813B94FF0FF3010BD0320FFF7A2FB1A
:1016800020600028F0D1F5E75A881344187A10BD7D
:1016900020B7FF1F13B7FF1F044B9888044B1B682C
:1016A0001BB11A885B88D31A1844704700B9FF1F12
:1016B00020B7FF1F10B5094B1B786BB1084C206891
:1016C00018B1FFF785FF002323600320FFF77AFBA3
:1016D00010B1FFF77DFFF8E710BD00BF13B7FF1F84
:1016E00020B7FF1F2DE9F0472E4E012307468946FC
:1016F00033700C46002C50D02B4D2B68AA462BBBC8
:1017000048F60148294B1B7803F0FF020BB93270F1
:1017100015E00420FFF772FB072808D80123337077
:10172000FFF738FFCAF8000080B91E4B1870B8F1F7
:1017300001081F4B01D01A782AB101221A704FF00C
:10174000FF30BDE8F08700F095F8DBE7184B00228A
:101750001A702B685888C0F140018C4238BF21466E
:1017600000F1080C08449C445880641A8A4204D052
:10177000B85C0CF802000132F8E717445A883F2A97
:1017800007D940221A8019460420FFF785FB002361
:101790002B60084B05221A70ACE734704846BDE850
:1017A000F08700BF16B7FF1F18B7FF1F13B7FF1F43
:1017B0001CB7FF1F15B7FF1F07B502AB012103F8C8
:1017C000010D1846FFF78EFF03B05DF804FBFFFF25
:1017D0002DE9F041114B1B78F3B1114E114B3468D8
:1017E000114D01271F7098464CB1002763882F7058
:1017F000042023802146FFF74FFB376009E0FFF705
:10180000C9FE014620B104202C70FFF745FB00E023
:101810002F70002388F80030BDE8F08113B7FF1F58
:1018200018B7FF1F16B7FF1F15B7FF1F38B50E4BB0
:101830001B7803F0FF05ABB90C4C216831B14B8824
:101840000B800420FFF728FB256038BDFFF7A2FEC0
:10185000014620B10420BDE83840FFF71DBB044B12
:1018600001221A7038BD00BF16B7FF1F18B7FF1F3F
:1018700015B7FF1F10B50E4C2378BBB90123237099
:10188000FFF70AFF08B101F05AFB00F053FC08B162
:1018900000F08AF800F0ACFF08B100F00FF901F099
:1018A00039FA08B100F094F90023237010BD00BF8D
:1018B00025B7FF1F08B50368C9B21B68984708BD64
:1018C00008B50368C9B21B68984708BD08B5036826
:1018D000C9B21B68984708BD08B50368C9B21B6840
:1018E000984708BD034800EB5100B0FBF1F000F051
:1018F000DBB900BF0044950810B5064800EB510065
:101900001446B0FBF1F000F0CFF92046BDE81040DE
:1019100000F02EBA0044950800F054BA084600F0D2
:1019200085BA084600F0D4BA0846114600F09ABAC3
:1019300008B5084600F0F2FA003018BF012008BDD3
:1019400008B5084600F00CFB003018BF012008BDA8
:1019500000F0F0BB00F028BC00F0FCBB00F0CEBBF8
:1019600000F03ABC00F0D4BB08B5084600F01EFBFE
:10197000012008BD08B5084600F018FB012008BD8D
:1019800010B508461446114600F05AFB204610BD1B
:1019900038B508460D4601F095FF04462146284615
:1019A00000F04EFB204638BD7047FFFF044B00227D
:1019B0001A714FF47A711A73024A99601A6070476B
:1019C00028B7FF1F203A000008B50368C9B21B689A
:1019D000984708BD08B50368C9B21B68984708BD99
:1019E00008B50368C9B21B68984708BD08B5036805
:1019F000C9B21B68984708BD034800EB5100B0FB13
:101A0000F1F000F091BC00BF0044950810B5064805
:101A100000EB51001446B0FBF1F000F085FC2046CD
:101A2000BDE8104000F0E4BC0044950800F00ABD99
:101A3000084600F05FBD084600F0AEBD08461146FE
:101A400000F074BD08B5084600F0CEFD003018BFA8
:101A5000012008BD08B5084600F0E8FD003018BFB9
:101A6000012008BD00F0C4BE00F0FCBE00F0D0BEF6
:101A700000F0A2BE00F00EBF00F0A8BE08B50846F8
:101A800000F0F2FD012008BD08B5084600F0ECFDAD
:101A9000012008BD10B508461446114600F02EFE80
:101AA000204610BD38B508460D4601F00BFF044630
:101AB0002146284600F022FE204638BD7047FFFF31
:101AC000044B00221A714FF47A711A73024A99601A
:101AD0001A60704738B7FF1F803A000008B50368E6
:101AE000C9B21B68984708BD08B50368C9B21B682E
:101AF000984708BD08B50368C9B21B68984708BD78
:101B000008B50368C9B21B68984708BD034800EBD5
:101B10005100B0FBF1F000F065BF00BF00A24A0425
:101B200010B5064800EB51001446B0FBF1F000F090
:101B300059FF2046BDE8104000F096BF00A24A04BD
:101B400000F0BCBF084600F0EDBF084601F02EB81B
:101B50000846114601F002B808B5084601F028F819
:101B6000003018BF012008BD08B5084601F042F852
:101B7000003018BF012008BD01F0CCB801F004B955
:101B800001F0D8B801F0AAB801F016B901F0B0B868
:101B900008B5084601F04CF8012008BD08B5084614
:101BA00001F046F8012008BD10B50846144611465C
:101BB00001F088F8204610BD38B508460D4601F002
:101BC00081FE04462146284601F07CF8204638BDB7
:101BD0007047FFFF044B00221A714FF47A711A7399
:101BE000024A99601A60704748B7FF1FE03A000048
:101BF00010B5204B2048214960221A70E1225A700A
:101C00001F4B204A1C78204B082C01D1012402E0F4
:101C10000A2C03D119240460132005E00C2C0CBFFE
:101C200015243D2404601220086014601860174BCE
:101C300017491B78174A03B101230B601360164B39
:101C4000164A1978164B012901D880210BE0042986
:101C500001D8842107E0082901D8852103E0102953
:101C600094BF86218721116019600E4B01221A70E2
:101C700010BD00BF0040074008B003400CB0034057
:101C8000B0B1FF1F08B00B400CB00B4059B7FF1F9D
:101C900020B0034020B00B40B1B1FF1F24B003407F
:101CA00024B00B4058B7FF1F234B1A6842F48062E0
:101CB0001A60224A00231370214A1370214A1370BC
:101CC000214A1370214A1370214B1B782BB1152B1D
:101CD00007D140F213321F4B02E01F4B40F2133288
:101CE0001A601E4B1B78012B05D0052B07D14FF432
:101CF00051721B4B02E01B4B4FF451721A601A4B8E
:101D0000C0F344321A70C0F347125A700221042201
:101D100000F01F0098729A70D9745A7588221A744C
:101D20003C22DA70114B40226FF44A711A700B4456
:101D30004FF400521A60704734800440E3B7FF1F2D
:101D400061B7FF1FECB7FF1FE4B7FF1F60B7FF1FAE
:101D5000A2B7FF1F18C0044040A00440B2B1FF1F4B
:101D60001CC0044044A0044000A006402DE400E054
:101D7000134A937800F0030103F0EC030B4341078F
:101D800048BF43F01003937000F00F03042B0C497D
:101D900003D18B7943F040038B715379C20603F072
:101DA000EF03074A48BF43F010035371937981064C
:101DB00003F0EF0348BF43F010039371704700BF77
:101DC00000A0064008B5114B1B685B0500D408BD98
:101DD0000F4B1A7802F0FF0312B1FFF74BFDF7E744
:101DE0000C4A4FF4005111600B4A0C49D37040F279
:101DF00003120A604A600A4A13700A4A13700A4BB7
:101E00001B680BB101221A7008BD00BF348004406A
:101E100060B7FF1F84E100E000A0064040A004403E
:101E2000E3B7FF1F61B7FF1F5CB7FF1F38B504465C
:101E3000094B1B7803F0FF05002BF9D12046012147
:101E4000FEF7E8FE20462946FEF7C4FE034B53F892
:101E50003420034B1A6038BD60B7FF1F08390000FB
:101E6000E8B7FF1F10B509B140F08000144A13789D
:101E70009842144622D0134A126852051DD503F029
:101E80007F03012B04D0052B05D100220E4B01E06E
:101E90000E4B00221A60002900F07F020CBF442381
:101EA0006023012A05D0052A07D143F44073064A6E
:101EB00002E0064A43F440731360207010BD00BF77
:101EC000B2B1FF1F348004401CC0044044A0044051
:101ED0000E4A1378984218D00D490968490513D560
:101EE0002BB1152B05D10B4B0021196001E00A49DC
:101EF0000B6028B1152807D140F21331054B02E0E1
:101F0000054B40F21331196010707047A2B7FF1FE4
:101F10003480044018C0044040A004400D4A38B545
:101F2000146814F480624FF0000410D021280A4D88
:101F30000AD80A4A012152F830302B60FEF76AFEB7
:101F40002B681C70012038BD2C60204638BD10461F
:101F500038BD00BF348004405CB7FF1F0839000063
:101F60000E4B1B6813F4806316D012280C4B03D160
:101F700040F202310B4A04E0142809D10A4A40F227
:101F8000023111605A7B42F001025A7301207047FE
:101F90005A7B02F0FE025A730020704734800440DE
:101FA00000A006400CA0044014C00440F8B51D4B2E
:101FB0001B685A05064633D51B4B1B680BB1012223
:101FC0001A701A4B1C780134402C1F4628BF00247D
:101FD000174D2B78A34218D1FEF7CAFD40280FDC1D
:101FE000144A13791B06F3D52B7813490133402B80
:101FF00028BF0023C95CDBB2C9B2D1712B70E7E7FF
:10200000FF28E5DDFFF736FCE2E70B4BF6B21E5585
:102010000A4B01221A70074BE4B2BC223C70DA7002
:10202000F8BD00BF34800440E8B7FF1FECB7FF1FC6
:10203000E4B7FF1F00A0064062B7FF1F60B7FF1F95
:10204000274B1B685A052DE9F04707468A4644D5B9
:10205000244B1B680BB101221A703D4607EB0A03A3
:102060009D4237D2DFF890801F4E98F8004096F8D6
:1020700000900134402C28BF00245FFA89F9A14563
:102080001DD11A4BBC22DA70FEF772FD40280FDC1E
:10209000164A13791B060FD5337815490133402BA7
:1020A00028BF0023C95CDBB2C9B2D171337003E031
:1020B000FF2801DDFFF7DEFB33784B45E4D00C4B06
:1020C00015F8012B1A550B4B0122E4B21A7088F84F
:1020D0000040C3E7054BBC22DA70BDE8F08700BFC3
:1020E00034800440E8B7FF1FE4B7FF1F00A006409C
:1020F00062B7FF1F60B7FF1FECB7FF1F08B5034BA8
:102100001B7813B1FFF7B6FBF9E708BD60B7FF1FF7
:10211000064A074B1B781078DBB2C0B283422CBF53
:102120003F3000F1FF30C01A704700BFE4B7FF1F17
:10213000ECB7FF1F054B1878054B1B78C0B2DBB21C
:10214000984238BF4030C01A704700BFE3B7FF1F46
:1021500061B7FF1F10B5104B10491A780B78D2B237
:10216000DBB29A4214D00133402B28BF00230C4825
:10217000DCB2C05C0C700B490968C0B251B19A4224
:1021800038BF4032D31A1A2B04DC00230B7010BD69
:102190004FF0FF3010BD00BFE3B7FF1F61B7FF1F57
:1021A000A3B7FF1F5CB7FF1F084B1A78084B1B78BB
:1021B000DBB29A4207D00133402B28BF0023054AE7
:1021C000D05CC0B270474FF0FF307047E3B7FF1FDD
:1021D00061B7FF1FA3B7FF1F0C4B1B685B0514D52E
:1021E0000B4BDA7802F0CB02DA7040225A74DA78BC
:1021F00042F03402DA70074B1A78074BD2B21A70E9
:10220000064B1B680BB100221A70704734800440E3
:1022100000A0064061B7FF1FE3B7FF1F5CB7FF1FB9
:1022200030B5374B1A7912F0300F31D072B69A7D33
:1022300002F0FF0022B9DA7940225A7462B627E030
:1022400062B6304A304913780978DBB2C9B2144615
:102250002B4AD5795A1C402A28BF00228A42EDB267
:1022600002D02A4B9D541346421E12F0FF00EFD1BC
:10227000DAB22270264A126852B18B4236BFC1F1DF
:102280004001C1EB03035B18272BC4BF012313706C
:102290001B4BD978C9B20C0620D51B7918061DD561
:1022A0001C4B1D4A1D781378EDB2DBB21046AB42D1
:1022B0000CD0134A0133402B1479184C28BF00234B
:1022C000E45CE4B2D471127D072AF0D9DBB203706A
:1022D0000B4B1A79120644BF7C22DA704B060ED5DE
:1022E000074B1A7912F0400F194608D00C4B002208
:1022F0001A700C4B1B6803B11A703C23CB7030BDB5
:1023000000A00640E3B7FF1F61B7FF1FA3B7FF1F81
:102310005CB7FF1FECB7FF1FE4B7FF1F62B7FF1FDB
:1023200060B7FF1FE8B7FF1F234B1A6842F4006233
:102330001A60224A00231370214A1370214A137035
:10234000214A1370214A1370214B1B78092B05D0A9
:102350001A2B07D140F213321E4B02E01E4B40F203
:1023600013321A601D4B1B780A2B05D01F2B07D187
:102370004FF451721A4B02E01A4B4FF451721A602B
:10238000194BC0F344321A70C0F347125A7000F070
:102390001F000422022198729A70D9745A758822FB
:1023A0001A743C22DA70114B40221A70A3F22B33BC
:1023B0004FF400421A607047348004405EB8FF1F3B
:1023C000F5B7FF1F64B8FF1F5FB8FF1FF4B7FF1F0B
:1023D000B3B1FF1F04D004400CB00440B4B1FF1FE0
:1023E00000D0044010B0044000B006402FE400E0EC
:1023F000134A937800F0030103F0EC030B43410709
:1024000048BF43F01003937000F00F03042B0C49F6
:1024100003D18B7943F040038B715379C20603F0EB
:10242000EF03074A48BF43F01003537193798106C5
:1024300003F0EF0348BF43F010039371704700BFF0
:1024400000B0064008B51E4B1B681B0500D408BD34
:102450001C4B1B7803F0FF0213B1FFF70BFAF7E7F1
:10246000194B4FF400411960184BDA70184B1B7868
:10247000092B05D01A2B07D140F20312154B02E0AD
:10248000154B40F203121A60144B1B7803F07F03C4
:102490000A2B05D01F2B07D140F20312104B02E08C
:1024A000104B40F203121A600F4A002313700F4AB8
:1024B00013700F4B1B680BB101221A7008BD00BFCF
:1024C00034800440F4B7FF1F84E100E000B0064010
:1024D000B3B1FF1F04D004400CB00440B4B1FF1FDF
:1024E00000D0044010B004405EB8FF1FF5B7FF1FD6
:1024F000F0B7FF1F38B50446094B1B7803F0FF0502
:10250000002BF9D120460121FEF784FB2046294605
:10251000FEF760FB034B53F83420034B1A6038BDC1
:10252000F4B7FF1F0839000060B8FF1F10B509B1EC
:1025300040F08000144A13789842144622D0134A7F
:10254000126812051DD503F07F030A2B04D01F2B40
:1025500005D100220E4B01E00E4B00221A6000292B
:1025600000F07F020CBF442360230A2A05D01F2AF3
:1025700007D143F44073064A02E0064A43F440732D
:102580001360207010BD00BFB4B1FF1F3480044041
:1025900000D0044010B004400F4A137898421AD07B
:1025A0000E490968090515D5092B04D01A2B05D148
:1025B00000210B4B01E00B4B00211960092805D0CD
:1025C0001A2807D140F21331054B02E0054B40F2C7
:1025D0001331196010707047B3B1FF1F348004408D
:1025E00004D004400CB004400D4A38B5146814F40B
:1025F00000624FF0000410D021280A4D0AD80A4A80
:10260000012152F830302B60FEF704FB2B681C7060
:10261000012038BD2C60204638BD104638BD00BFB3
:1026200034800440F0B7FF1F083900000B4B1B68D3
:1026300013F4006310D01728094B09D1094A40F25E
:10264000023111605A7B42F001025A730120704737
:102650005A7B02F0FE025A73002070473480044017
:1026600000B0064008B00440F8B51D4B1B681A05C1
:10267000064633D51B4B1B680BB101221A701A4B4F
:102680001C780134282C1F4628BF0024174D2B78B6
:10269000A34218D1FEF76CFA40280FDC144A1379D4
:1026A0001B06F3D52B7813490133282B28BF0023B1
:1026B000C95CDBB2C9B2D1712B70E7E7FF28E5DD59
:1026C000FFF7D8F8E2E70B4BF6B21E550A4B012292
:1026D0001A70074BE4B2BC223C70DA70F8BD00BF40
:1026E0003480044060B8FF1F64B8FF1F5FB8FF1F4D
:1026F00000B00640F6B7FF1FF4B7FF1F274B1B685B
:102700001A052DE9F04707468A4644D5244B1B6835
:102710000BB101221A703D4607EB0A039D4237D2E6
:10272000DFF890801F4E98F8004096F80090013432
:10273000282C28BF00245FFA89F9A1451DD11A4B26
:10274000BC22DA70FEF714FA40280FDC164A13791F
:102750001B060FD5337815490133282B28BF0023DA
:10276000C95CDBB2C9B2D171337003E0FF2801DD6F
:10277000FFF780F833784B45E4D00C4B15F8012B6C
:102780001A550B4B0122E4B21A7088F80040C3E7D7
:10279000054BBC22DA70BDE8F08700BF34800440EE
:1027A00060B8FF1F5FB8FF1F00B00640F6B7FF1FFD
:1027B000F4B7FF1F64B8FF1F08B5034B1B7813B1B4
:1027C000FFF758F8F9E708BDF4B7FF1F064A074BB3
:1027D0001B781078DBB2C0B283422CBF273000F1E7
:1027E000FF30C01A704700BF5FB8FF1F64B8FF1FFB
:1027F000054B1878054B1B78C0B2DBB2984238BF46
:102800004030C01A704700BF5EB8FF1FF5B7FF1F0A
:1028100010B5104B10491A780B78D2B2DBB29A423D
:1028200014D00133402B28BF00230C48DCB2C05C1D
:102830000C700B490968C0B251B19A4238BF40329E
:10284000D31A1A2B04DC00230B7010BD4FF0FF309D
:1028500010BD00BF5EB8FF1FF5B7FF1F1EB8FF1FFA
:10286000F0B7FF1F084B1A78084B1B78DBB29A426F
:1028700007D00133402B28BF0023054AD05CC0B2EB
:1028800070474FF0FF3070475EB8FF1FF5B7FF1F6E
:102890001EB8FF1F0C4B1B681B0514D50B4BDA78B9
:1028A00002F0CB02DA7040225A74DA7842F0340235
:1028B000DA70074B1A78074BD2B21A70064B1B68B6
:1028C0000BB100221A7070473480044000B00640FB
:1028D000F5B7FF1F5EB8FF1FF0B7FF1F30B5374BCE
:1028E0001A7912F0300F31D072B69A7D02F0FF00E3
:1028F00022B9DA7940225A7462B627E062B6304AC9
:10290000304913780978DBB2C9B214462B4AD5791D
:102910005A1C402A28BF00228A42EDB202D02A4B1C
:102920009D541346421E12F0FF00EFD1DAB222701E
:10293000264A126852B18B4236BFC1F14001C1EB49
:1029400003035B18272BC4BF012313701B4BD978DB
:10295000C9B20C0620D51B7918061DD51C4B1D4A83
:102960001D781378EDB2DBB21046AB420CD0134A9F
:102970000133282B1479184C28BF0023E45CE4B2FF
:10298000D471127D072AF0D9DBB203700B4B1A7990
:10299000120644BF7C22DA704B060ED5074B1A791B
:1029A00012F0400F194608D00C4B00221A700C4B45
:1029B0001B6803B11A703C23CB7030BD00B00640D9
:1029C0005EB8FF1FF5B7FF1F1EB8FF1FF0B7FF1F50
:1029D00064B8FF1F5FB8FF1FF6B7FF1FF4B7FF1FF4
:1029E00060B8FF1F174B1A6842F480521A60164AEB
:1029F00000231370154A1370154A1370154A13708B
:102A0000154A1370154A40F2133111604FF4517199
:102A10005160134AC0F344311170C0F3471100F004
:102A20001F0051709072937013742C23D3700D4B50
:102A300040226FF44B711A700B444FF400321A604D
:102A4000704700BF34800440D6B8FF1F6DB8FF1F29
:102A5000DCB8FF1FD7B8FF1F6CB8FF1F08C00440C9
:102A600000C0064031E400E0134A937800F003010F
:102A700003F0EC030B43410748BF43F0100393708E
:102A800000F00F03042B0C4903D18B7943F0400372
:102A90008B715379C20603F0EF03074A48BF43F036
:102AA000100353719379810603F0EF0348BF43F09D
:102AB00010039371704700BF00C0064008B5114B6A
:102AC0001B68DB0400D408BD0F4B1A7802F0FF032B
:102AD00012B1FEF7CFFEF7E70C4A4FF40031116058
:102AE0000B4A0C49D37040F203120A604A600A4A4A
:102AF00013700A4A13700A4B1B680BB101221A703B
:102B000008BD00BF348004406CB8FF1F84E100E0C2
:102B100000C0064008C00440D6B8FF1F6DB8FF1FB4
:102B200068B8FF1F38B50446094B1B7803F0FF0552
:102B3000002BF9D120460121FEF76CF820462946EA
:102B4000FEF748F8034B53F83420034B1A6038BDA6
:102B50006CB8FF1F08390000D8B8FF1F10B509B1C5
:102B600040F080000E4A1378984217D00D4C24682C
:102B7000E40412D503F07F03082B02D10A4B002492
:102B80001C60002900F07F030CBF44216021082B4A
:102B900003D1054B41F440711960107010BD00BFA6
:102BA000B5B1FF1F348004400CC004407047FFFFE4
:102BB0000D4A38B5146814F480524FF0000410D058
:102BC00021280A4D0AD80A4A012152F830302B60D8
:102BD000FEF720F82B681C70012038BD2C602046C1
:102BE00038BD104638BD00BF3480044068B8FF1FB0
:102BF000083900000B4B1B6813F4805310D00E28CB
:102C0000094B09D1094A40F2023111605A7B42F066
:102C100001025A73012070475A7B02F0FE025A7378
:102C2000002070473480044000C0064004C00440C7
:102C3000F8B51D4B1B68DA04064633D51B4B1B68E1
:102C40000BB101221A701A4B1C780134282C1F4634
:102C500028BF0024174D2B78A34218D1FDF788FF19
:102C600040280FDC144A13791B06F3D52B7813493F
:102C70000133282B28BF0023C95CDBB2C9B2D17154
:102C80002B70E7E7FF28E5DDFEF7F4FDE2E70B4BED
:102C9000F6B21E550A4B01221A70074BE4B2AC2261
:102CA0003C70DA70F8BD00BF34800440D8B8FF1F14
:102CB000DCB8FF1FD7B8FF1F00C006406EB8FF1F6B
:102CC0006CB8FF1F38B504464518AC4204D014F860
:102CD000010BFFF7ADFFF8E738BDFFFF08B5034B69
:102CE0001B7813B1FEF7C6FDF9E708BD6CB8FF1FEE
:102CF000064A074B1B781078DBB2C0B283422CBF68
:102D0000273000F1FF30C01A704700BFD7B8FF1F4F
:102D1000DCB8FF1F054B1878054B1B78C0B2DBB23F
:102D2000984238BF4030C01A704700BFD6B8FF1F66
:102D30006DB8FF1F10B5104B10491A780B78D2B23E
:102D4000DBB29A4214D00133402B28BF00230C4839
:102D5000DCB2C05C0C700B490968C0B251B19A4238
:102D600038BF4032D31A1A2B04DC00230B7010BD7D
:102D70004FF0FF3010BD00BFD6B8FF1F6DB8FF1F6A
:102D800096B8FF1F68B8FF1F084B1A78084B1B78CE
:102D9000DBB29A4207D00133402B28BF0023054AFB
:102DA000D05CC0B270474FF0FF307047D6B8FF1FFD
:102DB0006DB8FF1F96B8FF1F054B1A78054BD2B2AE
:102DC0001A70054B1B680BB100221A70704700BFC8
:102DD0006DB8FF1FD6B8FF1F68B8FF1F10B5294B8D
:102DE0001A79920620D5284AD879137827490133D1
:102DF000402B097828BF00238B42C0B203D024495E
:102E0000C854D9B21170234A116869B1224A1278A4
:102E1000D2B2934236BFC2F14002C2EB03039B1809
:102E2000272BC4BF01230B70164AD178C9B20C06F8
:102E300016D51379180613D5184B17481C78037844
:102E4000DBB29C4202D16C23D37009E00133282B02
:102E500028BF0023124CE45CDBB2E4B2D4710370EF
:102E60004B060ED5074B1A7912F0400F194608D0C1
:102E70000C4B00221A700C4B1B6803B11A702C23E8
:102E8000CB7010BD00C00640D6B8FF1F6DB8FF1F45
:102E900096B8FF1F68B8FF1FD7B8FF1FDCB8FF1F29
:102EA0006EB8FF1F6CB8FF1FD8B8FF1F1FB572B6F2
:102EB000154B70221A70154A412111700F2102F82A
:102EC000011C80221A701A781206FCD5104B186863
:102ED00062B6104B984298BF0A2301AC98BF584382
:102EE00021460A2200F03AF80023E15C0A4A29B19F
:102EF00002EB430001330A2B4180F6D101335B0022
:102F0000137004B010BD00BF000002400700024073
:102F1000080002407F9698003EB2FF1FFEF7BCBB40
:102F2000FEF778BBFEF79CBBFEF752BCFEF7C2BBB8
:102F30000846FEF741BC08461146FEF7D3BB704772
:102F4000044B00221A714FF47A711A73024A996085
:102F50001A607047E0B8FF1F983B000010B50023CF
:102F6000B0FBF2F402FB1400092894BF3030373074
:102F7000C0B2C85420460CB10133F1E7CA185470EE
:102F800022469A4206DA885CCC5C8C54C8540132E2
:102F9000013BF6E7084610BD4FF0FF0C1CEAD0528B
:102FA0001EBF1CEAD15392EA0C0F93EA0C0F6FD0AC
:102FB0001A4480EA010C400218BF5FEA41211ED08A
:102FC0004FF0006343EA501043EA5111A0FB013176
:102FD0000CF00040B1F5000F3EBF490041EAD3714B
:102FE0005B0040EA010062F17F02FD2A1DD8B3F1C7
:102FF000004F40EBC25008BF20F00100704790F036
:10300000000F0CF0004C08BF49024CEA502040EA87
:1030100051207F3AC2BFD2F1FF0340EAC25070474D
:1030200040F400004FF00003013A5DDC12F1190F8B
:10303000DCBF00F000407047C2F10002410021FAFD
:1030400002F1C2F1200200FA02FC5FEA310040F115
:10305000000053EA4C0308BF20EADC70704792F08E
:10306000000F00F0004C02BF400010F4000F013AC6
:10307000F9D040EA0C0093F0000F01F0004C02BFC1
:10308000490011F4000F013BF9D041EA0C018FE730
:103090000CEAD15392EA0C0F18BF93EA0C0F0AD036
:1030A00030F0004C18BF31F0004CD8D180EA01005C
:1030B00000F00040704790F0000F17BF90F0004FF5
:1030C000084691F0000F91F0004F14D092EA0C0FD7
:1030D00001D142020FD193EA0C0F03D14B0218BF6A
:1030E000084608D180EA010000F0004040F0FE40B0
:1030F00040F40000704740F0FE4040F4400070474C
:103100004FF0FF0C1CEAD0521EBF1CEAD15392EACA
:103110000C0F93EA0C0F69D0A2EB030280EA010CBA
:1031200049024FEA402037D04FF0805343EA111153
:1031300043EA10130CF000408B4238BF5B0042F1B1
:103140007D024FF4000C8B4224BF5B1A40EA0C0056
:10315000B3EB510F24BFA3EB510340EA5C00B3EB88
:10316000910F24BFA3EB910340EA9C00B3EBD10F76
:1031700024BFA3EBD10340EADC001B0118BF5FEAC8
:103180001C1CE0D1FD2A3FF650AF8B4240EBC250F1
:1031900008BF20F0010070470CF0004C4CEA5020B2
:1031A0007F32C2BFD2F1FF0340EAC250704740F401
:1031B00000004FF00003013A37E792F0000F00F0F3
:1031C000004C02BF400010F4000F013AF9D040EA71
:1031D0000C0093F0000F01F0004C02BF490011F405
:1031E000000F013BF9D041EA0C0195E70CEAD153FD
:1031F00092EA0C0F08D142027FF47DAF93EA0C0FE4
:103200007FF470AF084676E793EA0C0F04D14B02C7
:103210003FF44CAF08466EE730F0004C18BF31F079
:10322000004CCAD130F000427FF45CAF31F0004373
:103230007FF43CAF5FE700BF4FEA4002B2F1FE4FC0
:103240000FD34FF09E03B3EB12620DD94FEA002368
:1032500043F0004310F0004F23FA02F018BF404241
:1032600070474FF00000704712F1610F01D1420228
:1032700005D110F0004008BF6FF0004070474FF0DC
:103280000000704738B5044608460D4600F01AFBAA
:10329000236802465B6820462946984738BD38B502
:1032A000044600F0DDF90546204600F091F9284477
:1032B00038BD436A072B04DC00EB83020133516005
:1032C0004362704737B5002380F8403080F84130C2
:1032D0001B4B90F828201B6801930446019B0AB100
:1032E000426B00E0026BE16A591A914226D3A26B4D
:1032F000E362012384F8403062B984F84130114917
:103300001148FFF7BFFF1048E16BFFF7C8FF2068C7
:1033100000F05AF80C48E16BFFF7C1FF0025636A23
:103320009D420BDA04EB850307485A68A36B0C3304
:10333000013532F91310FFF7B2FFF0E703B030BDEB
:1033400030B6FF1FB83B0000E0B8FF1F90F84030D8
:1033500010B5044673B108480849FFF793FFA36B03
:1033600001337F2B01DCA36310BD0023A363E36B58
:103370000133E36310BD00BFE0B8FF1FC03B000096
:1033800038B500210546FDF785FA044690B10023C3
:10339000E2189188EA180233B3F5807F1183F7D1E0
:1033A000284621460022FDF761FA2046BDE8384054
:1033B000FDF73CBA38BDFFFF08B5FDF7B1FA014B88
:1033C000187008BDF0B8FF1F034B1B781BB1034BEF
:1033D0004FF080421A607047F0B8FF1F08E200E02B
:1033E000F8B5B0F918300446002B00F0EE80FDF778
:1033F000D7F90646002800F0E880B4F92C30051D06
:10340000072B00F2C780DFE803F004615082289D9B
:1034100071B00023E2696D4F4FEAD25EC2F3CF1064
:1034200037F91EC00EF1010EC0F57F4137F91E704D
:10343000FF3178430CFB0101B4F918000914414332
:10344000C913E952A16A02338A1848BF22F0004228
:10345000B3F5807FE261DDD19CE0216B002900F0B3
:10346000A180E36900224FEAD35EC3F3CF1731F99D
:103470001EC00EF1010E5FFA8EFEC7F57F4031F9D6
:103480001EE0FF3007FB0EF700FB0C70B4F918705C
:1034900000147843C013A852A06A02320344B2F564
:1034A000807F23F00043DED14AE0E269831D0021E2
:1034B000208B570048BF404223F8020C0131A06A1C
:1034C0008029024403F10203F2D14CE0E2690023B7
:1034D000218BC2F3CF3010FB01F1C913E952A16A6D
:1034E0000233B3F5807F0A44F2D13CE0E269002365
:1034F000218BC2F3CF3010FB01F1C913E952A16A4D
:103500000233B3F5807FC1EB0202F1D12BE0E36916
:103510000022208B002BB8BF40424FEA8301B8BF86
:1035200080B25F0048BF4942490C00B24143C91311
:10353000A952A16A0232B2F5807F03EB4103E8D1C0
:10354000E36127E0206AE269B31D0021278B8242F4
:1035500038BF7F4223F8027C0131A76A80293A44B0
:1035600003F10203F2D1E26114E00027A26AE369E9
:10357000934205D2B4F91810484200F0A6F8A0848E
:10358000A38CEB53A26AE36902371344B7F5807F3B
:10359000E361EBD1B4F92E304BB92046314600221D
:1035A000FDF764F93046BDE8F840FDF73FB906F590
:1035B0008273B5F90010B4F92E200A4402F30F0209
:1035C00025F8022B9D42F4D3E7E7F8BDE83B000065
:1035D00007B5064B1B88ADF80430036801A95B688A
:1035E0000222984703B05DF804FB00BFEA3D0000EB
:1035F00070B505468AB022B90368C9B21B689847FE
:103600002CE0012A08BF0A2221B930228DF825209A
:10361000212413E02124B1FBF2F002FB1011C9B206
:1036200009290AAE94BF303137312644C9B206F8B1
:10363000241C014610B1013CE4B2ECE733B1013C7B
:10364000E4B20AAB23442D2203F8242C2B6801A9F1
:103650005B6828462144C4F1220298470AB070BD35
:103660000029BABF49422D2300230A22FFF7C0BF19
:103670000C4A0D48136811460C4A002B08BF13462C
:1036800093FBF0F200FB12330948424344F2A710C7
:1036900000FB03200028BCBF00F1004000F1FF3018
:1036A00008607047F4B8FF1F1DF3010024D95B07C1
:1036B000ECF4FFFF10B5044630B1FFF7D9FFB0FBC3
:1036C000F4F303FB140010BD10BD884210B504468E
:1036D00004DA081AFFF7EEFF204410BD10BD0346C0
:1036E0000846194600F000B870B5064C06460D466F
:1036F00013462CB131462A460220AFF3008070BD3C
:10370000204670BD0000000070B50E4B0E4DED1A46
:10371000AD1000241E46AC4204D056F82420904739
:103720000134F8E700F094FB084D094BED1AAD1099
:1037300000241E46AC4204D056F8242090470134A1
:10374000F8E770BD5C3E00005C3E0000743E000087
:103750005C3E0000024B0146186800F04FB800BF05
:10376000B4B2FF1F024B0146186800F003B800BF57
:10377000B4B2FF1F30B500293CD051F8042C0B1F08
:103780001D49002AB8BF9B180A680C4612B95A6036
:103790000B6030BD93420DD219685818904203D186
:1037A0005A581144426819605A60236030BD9942EA
:1037B00003D80A4651680029F9D1146815199D42A9
:1037C0000AD11B682344D0188842136012D10868BC
:1037D000034413604B680CE002D90C23036030BD36
:1037E00018681C188C4203D10C6849682044186082
:1037F0005960536030BD00BFFCB8FF1F70B5CD1CD1
:1038000025F0030508350C2D38BF0C25002D064684
:103810003FDB8D423DD3214B1C6818462146A1B1A8
:103820000B685B1B0ED40B2B03D90B60CC18CD504F
:103830001FE08C4202D1626802601AE04B6863604C
:103840000C4616E00C464968E9E7154C23681BB99D
:10385000304600F027F820602946304600F022F874
:10386000431C014615D0C41C24F0030484420AD131
:10387000256004F10B00231D20F00700C31A0BD0B4
:103880005A42E25070BD3046611A00F00BF8013028
:10389000EED10C233360002070BD00BFFCB8FF1FC9
:1038A000F8B8FF1F38B5064C0023054608462360CC
:1038B000FDF754F9431C02D1236803B12B6038BDD6
:1038C00014B9FF1F034613F8012B002AFBD1181A65
:1038D00001387047FFFFFFFF0000000000000000FC
:1038E000650400000000000000000000000000006F
:1038F0006D0B000000000000000000000000000050
:1039000049050000000000004008FE4340A00440BC
:103910004408FE4344A004400018FE4300C0044095
:103920003000FE43309004403400FE4334900440A5
:103930001C18FE431CC004401018FE4310C0044075
:103940000818FE4308C004400C18FE430CC0044095
:103950000C10FE430CB004401010FE4310B00440A5
:103960001810FE4318B004401C10FE431CB0044065
:103970001410FE4314B004400418FE4304C0044075
:103980000010FE4300B004400008FE4300A00440C5
:103990000408FE4304A004400C08FE430CA00440AD
:1039A0000808FE4308A004401418FE4314C0044055
:1039B0001818FE4318C004400410FE4304B004402D
:1039C0000810FE4308B004401400FE431490044065
:1039D0004C08FE434CA004400420FE4304D00440A5
:1039E0002410FE4324B004402010FE4320B00440C5
:1039F0002810FE4328B004402C10FE432CB0044095
:103A00000020FE4300D004404808FE4348A0044084
:103A10001000FE4310900440000000000000000071
:103A2000691900008119000051190000591900009E
:103A3000551900005D190000E5180000F918000094
:103A4000191900001D190000231900002919000090
:103A500031190000411900006119000065190000CA
:103A6000B5180000C1180000CD180000D9180000DA
:103A7000911900007519000000000000000000000E
:103A80007D1A0000951A0000651A00006D1A0000EA
:103A9000691A0000711A0000F91900000D1A0000DF
:103AA0002D1A0000311A0000371A00003D1A0000DC
:103AB000451A0000551A0000751A0000791A000016
:103AC000C9190000D5190000E1190000ED19000026
:103AD000A51A0000891A0000000000000000000084
:103AE000911B0000A91B0000791B0000811B000036
:103AF0007D1B0000851B00000D1B0000211B00002A
:103B0000411B0000451B00004B1B0000511B000027
:103B1000591B0000691B0000891B00008D1B000061
:103B2000DD1A0000E91A0000F51A0000011B000070
:103B3000B91B00009D1B00000015191500010000B5
:103B4000B6B1FF1F1200000000020000E0B1FF1F2D
:103B500043000000000300003AB2FF1F0000000015
:103B600001030904C8B1FF1F00000000020309049B
:103B700024B2FF1F00000000030309043EB2FF1F30
:103B80000000000000000000000000000000000035
:103B90000000000000000000312F0000372F00005F
:103BA0001D2F0000212F0000252F0000292F0000CD
:103BB0002D2F0000000000002A626C6F636B200054
:103BC0004000FFFFFFFFFFFF0000000000000000BB
:103BD0008133000000000000000000000000000031
:103BE000E1330000000000000000240348066A09D9
:103BF0008C0CAB0FC812E215F9180B1C1A1F2322EC
:103C0000282526281F2B112EFB30DF33BA368C399E
:103C1000563C173FCE417A441C47B4493F4CBF4EF7
:103C200033519B53F5554258825AB35CD75EEB60D3
:103C3000F162E864CF66A6686D6A236CC96D5E6F39
:103C4000E2705472B573047541766B778478897924
:103C50007C7A5C7B297CE37C897D1D7E9C7E097F50
:103C6000617FA67FD87FF57FFF7FF57FD87FA67F16
:103C7000617F097F9C7E1D7E897DE37C297C5C7B46
:103C80007C7A897984786B7741760475B573547240
:103C9000E2705E6FC96D236C6D6AA668CF66E864DA
:103CA000F162EB60D75EB35C825A4258F5559B5384
:103CB0003351BF4E3F4CB4491C477A44CE41173F65
:103CC000563C8C39BA36DF33FB30112E1F2B262899
:103CD000282523221A1F0B1CF918E215C812AB0F56
:103CE0008C0C6A09480624030000DCFCB8F996F63F
:103CF00074F355F038ED1EEA07E7F5E3E6E0DDDDA5
:103D0000D8DADAD7E1D4EFD105CF21CC46C974C6D1
:103D1000AAC3E9C032BE86BBE4B84CB6C1B341B158
:103D2000CDAE65AC0BAABEA77EA54DA329A1159F5C
:103D30000F9D189B31995A979395DD933792A290D6
:103D40001E8FAC8D4B8CFC8ABF8995887C877786CB
:103D50008485A484D7831D837782E3816481F7807F
:103D60009F805A8028800B8001800B8028805A8099
:103D70009F80F7806481E38177821D83D783A48449
:103D8000848577867C879588BF89FC8A4B8CAC8D2F
:103D90001E8FA2903792DD9393955A973199189B75
:103DA0000F9D159F29A14DA37EA5BEA70BAA65ACAB
:103DB000CDAE41B1C1B34CB6E4B886BB32BEE9C0AA
:103DC000AAC374C646C921CC05CFEFD1E1D4DAD756
:103DD000D8DADDDDE6E0F5E307E71EEA38ED55F079
:103DE00074F396F6B8F9DCFC00000D0A4300FFFFFF
:103DF00000000000000000000000000000000000C3
:103E000000000000000000000000000000000000B2
:103E100000000000000000000000000000000000A2
:103E20000000000000000000000000000000000092
:103E30000000000000000000000000000000000082
:103E40000000000000000000000000000000000072
:103E5000F8B500BFF8BC08BC9E46704735040000AA
:103E600015060000AD190000C11A0000D51B0000A6
:043E7000412F0000DE
:103E7400000000002B8716BF583914BF448B0CBFB9
:103E840023DBF9BE83C0CABE0AD7A3BED57869BEF8
:103E940023DBF9BD0000000023DBF93DD578693E42
:103EA4000AD7A33E83C0CA3E23DBF93E448B0C3FB2
:103EB4005839143F2B87163F18B9FF1FFFFFFFFF28
:103EC4000A0401090A081201010102000040C01697
:103ED4008304000201020301180354006500650015
:103EE4006E00730079006400750069006E006F0055
:103EF40009024300020100C0320904000001020269
:103F04000100052400100105240101010424020616
:103F1400052406000107058203100040090401007E
:103F2400020A00000007050302400000070584029E
:103F340040000000160355005300420020005300C7
:103F440065007200690061006C00040309040C033D
:103F5400000000000000000000000000000000005D
:103F64000000000000000000F03D0000103E0000D2
:103F7400303E0000000000000000000000000000CF
:103F840000000000EC3D0000000000000000000004
:103F9400000000000000000000000000000000001D
:103FA400000000000000000000000000000000000D
:103FB40000000000000000000000000000000000FD
:083FC4000000000054B2FF1FD1
:00000001FF
